:100000000C949B000C94C3000C94C3000C94C3008C
:100010000C94C3000C94C3000C94C3000C94C30054
:100020000C94C3000C94C3000C945C0C0C94CB0C8B
:100030000C94C3000C94C3000C94C3000C94C30034
:100040000C94C3000C94470F0C94C3000C94C30091
:100050000C94C3000C94C3000C94C3000C94FD0ECC
:100060000C94C3000C94C3000C94C3000C94C30004
:100070000C94C3000C94C3000C94C3000C94C300F4
:100080000C94C3000C94C3000C94C3000C94C300E4
:100090000C94C3000C94C3000C94C3000C94C300D4
:1000A0000C94C3000C94C3000C94C300D5F08D14C1
:1000B000A1C881CFD9F1AF2000DB20C0A0D9218118
:1000C000FFA800A800A83F080B00020202000009D8
:1000D00004000001020200000524001001052401B3
:1000E000010104240206052406000107058103100E
:1000F000004009040100020A000000070502024056
:1001000000000705830240000004030904120100F7
:1001100002EF020140412336800001010203014148
:10012000726475696E6F204C4C4300417264756255
:100130006F7900005E0F11241FBECFEFDAE0DEBF43
:10014000CDBF11E0A0E0B1E0EAEFFCE302C0059012
:100150000D92A035B107D9F72AE0A0E5B1E001C0C2
:100160001D92AA30B207E1F710E0CBE9D0E004C05D
:100170002197FE010E94751ECA39D107C9F70E9456
:10018000C30F0C947B1E0C9400008823A1F08F30C9
:1001900091F0662381F06A3071F06150770B9EE038
:1001A000969FF001979FF00D1124E052FA4FE80F4F
:1001B000F11D808108958FEF08952AE234E0E0EE8A
:1001C000F5E0A0E0B0E0BD0180E00E943A010E94AD
:1001D0002901BD011296A20FB31F8217930799F34D
:1001E0008F5F9F4F21F4AF5FBF40DB0178F00E942B
:1001F000490340E0509187056091880580E20E94A4
:100200002E01599A0E941203A0E0B0E07CEF0E94F8
:1002100049034A2F509187055B0F60918805611D46
:1002200082E00E942E01832F71FD822F70FD81914B
:100230000E944601759518F42150304019F011962E
:10024000AA2389F7599A0E94120321153105F9F65C
:1002500008950E947101982F0C94770159980E947B
:100260004601862F0E944601852F0E944601842F59
:100270000C944601462F50918705570F60918805D1
:10028000681F83E00E942E011EBC08958EBD0000F1
:100290008EB50DB407FEFCCF0895E0EEF5E0AAE2BE
:1002A000B4E060E070E080E00E943A019D01AF019F
:1002B00060E00E946C018217930751F4D901FA01A2
:1002C00060E00E94710181931197D9F761E0F1CF4D
:1002D0000E947701862F08950E947101982F0C9437
:1002E00071010DB407FEFDCF8EB51EBC08950DB48F
:1002F00007FEFDCF8EB5599A0895FC0180918605C1
:10030000882311F13FB7F89482E08093E9002091AF
:10031000F200822F90E01816190614F481E090E0A4
:10032000882339F0289844E6409385054091F100F0
:100330004083222339F02091F200211103C02BE6E3
:100340002093E8003FBF08958FEF9FEF08952FB7E8
:10035000F89483E08093E9009091E800892F8072FF
:1003600095FF04C09091F20080E4891B2FBF08958F
:1003700080917D0581110DC082E08093790584E034
:1003800080937A0510927C0510927B0581E0809322
:100390007D0589E795E00895CF93DF931F92CDB750
:1003A000DEB76983DC01ED91FC910280F381E02DE1
:1003B00041E050E0BE016F5F7F4F09950F90DF91E4
:1003C000CF91089583E08093E9008091F200882323
:1003D00019F08AE38093E80008950E94A70190E055
:1003E0000895CF93DF931F92CDB7DEB7FC018485CC
:1003F000958597FD08C02FEF3FEF358724870F9035
:10040000DF91CF910895CE0101960E947D01019761
:1004100019F4898190E0F3CF8FEF9FEFF0CF0F9326
:100420001F93CF93DF931F92CDB7DEB78C01FC01F2
:100430008485958597FF0BC0CE0101960E947D01B2
:10044000019771F4898190E0F80195878487F8011C
:10045000848595850F90DF91CF911F910F9108951D
:100460008FEF9FEFF1CFFC018485958597FD0BC041
:100470009FB7F89482E08093E9008091F2009FBFDB
:1004800090E0019608959FB7F89482E08093E90088
:100490008091F2009FBF90E00895409173055091C4
:1004A0007405209171053091720542175307B4F419
:1004B0009091E8009570E1F39091E80092FD19C0E9
:1004C0008093F100809173059091740501968F736C
:1004D0009927892B19F48EEF8093E800809173059A
:1004E000909174050196909374058093730581E053
:1004F000089580E00895EF92FF920F931F93CF939A
:10050000DF93F82E192FE62E042F81E0860F880F37
:100510000E944D0283E00E944D02CF2DD12FEC0EA0
:10052000FD2EF11CCE15DF05B9F007FF13C0FE014B
:1005300084910E944D02182F80E00E944D02812379
:1005400021968111EFCFDF91CF911F910F91FF90F5
:10055000EF9008958881EDCF81E0F5CFDF92EF92A3
:10056000FF920F931F93CF93DF93D82E8A01EB0155
:100570007B01E40EF51ECE15DF0559F0D7FE12C043
:10058000FE0184910E944D0221968111F4CF0FEF5C
:100590001FEFC801DF91CF911F910F91FF90EF9056
:1005A000DF9008958881EECF0F931F93CF93DF9351
:1005B0001F92CDB7DEB782E0898342E450E067EC5A
:1005C00070E080E80E94AE020E94B801DC01129641
:1005D0000D911C910115110589F0D801ED91FC9147
:1005E0000280F381E02DBE016F5F7F4FC801099546
:1005F00097FD04C0F80100851185ECCF89810F902B
:10060000DF91CF911F910F910895615030F02091AB
:10061000F100FC0120830196F8CF289884E68093AE
:1006200085050895599885E00E94460180E00E9462
:10063000460180FDFBCF599A089590E0409F09F450
:10064000142E5527090E151E600D711D851F1124CE
:100650000C9438030F9303E020E00E941D030E94D6
:100660006C01782F0E947701682F892F0F910895D0
:10067000462F50916201570F60916301681F83E01C
:100680000E942E011EBC089559980E944601599A55
:10069000089586E00C944403FC010E94E70331971F
:1006A00028F068517C4F8F4F9F4FF9CFAB01FC0171
:1006B0000E94E703641775078E079F07C8F3089524
:1006C00085E090E00C944C038F929F92AF92BF9282
:1006D000CF92DF92EF92FF920F931F93CF93DF930E
:1006E0006C017B018A0180910F01882309F45AC0B3
:1006F00080918605882309F455C08091780580FF94
:1007000005C08091E00082608093E000E801B12C98
:100710008AEFA82E93E0892E2AE3922E209711F4D7
:10072000BB20C9F10E94A701811108C0AA94AA2088
:10073000C9F181E090E00E944C03F0CF8C171D06B8
:1007400011F00CF08C2F9FB7F8948092E900209163
:10075000E80025FD02C09FBFE1CF282F30E0C21B7B
:10076000D30BF701815020F041914093F100FACF73
:10077000E20EF31EBB2021F09092E800B12CEBCFEB
:100780008091E80085FDE7CF9092E800BB24B39408
:10079000209709F3F3CF5D9884E6809377051016D0
:1007A00011063CF081E090E0F6019383828310E033
:1007B00000E0C801DF91CF911F910F91FF90EF9062
:1007C000DF90CF90BF90AF909F908F900895AEE54F
:1007D000B1E02FB7F8947D918D919C9166B52FBFB4
:1007E000A89B05C06F3F18F47F5F8F4F9F4F22E09B
:1007F000660F771F881F991F2A95D1F70895FC016E
:100800009081907F6F70692B60830895FC019081C7
:100810009F7080E1689FB0011124692B6083089567
:1008200030E73CBDDC0130E8439FC0011124A80F34
:10083000B91F5E91352F6111372F3C93C89500C0C9
:1008400052235EBD0197A9F704D003D030E50DB463
:100850003CBD089590915701982329F09091660529
:10086000982381E009F080E0089580916405882351
:1008700029F081508093640581E0089580E0089517
:10088000E2ECF9E080E092E081110FC09093C209A0
:100890001092C4091092C3098F5F33968831A1F773
:1008A00010926A0510926B050895108212821182CF
:1008B000F3CF8091DD08811114C08091DE088F7024
:1008C000843069F018F4813030F40895853031F0C7
:1008D0008A3040F008951092D708089588E08093F8
:1008E000D70808958CE0FBCF9091E408292F22953A
:1008F0002F70821303C09F7081E0961380E00895EB
:1009000080916605809357019FB19095907F669B7B
:1009100098601C9B94609093660580958923089548
:100920001F93CF93DF93C0E2D9E01FEF6E816F3F3B
:1009300059F062956F70CE010E9406046E816F704F
:10094000CE010E94FF031E83279689E0CE39D80787
:1009500069F7DF91CF911F9108953F924F925F9277
:100960006F927F928F929F92AF92BF92CF92DF92BF
:10097000EF92FF920F931F93CF93DF9300D01F92BC
:10098000CDB7DEB73A01862EA4E6B1E0B701E02F7D
:10099000DD24382E96959695969531E061FD34E0EC
:1009A00060FD330F62FD32955FEF539F7001E0945D
:1009B000F094759567957595679575956795462F2C
:1009C0004F3F4CF44095941B20FD440F489F600C12
:1009D000711C8D1C4FEF17FF0BC0300E20FF02C0A3
:1009E000000F111F601A710A8D0817FD8394EE27FE
:1009F00050E845030E0EA00DB11D5E1B351608F024
:100A0000352E57E0541B591714F4952FD39450E802
:100A10005319482E552421FD02C04318550820FFC4
:100A200002C0440C551C11245B824A82932E009014
:100A30006201700C00906301801C19C0599833E06A
:100A40003EBD640C751C811CAA24831509F0A39477
:100A50000CD08EBC07D07EBC05D06EBC03D01EBCB3
:100A600003D00895C8950000C895C89508956418E6
:100A700075088108E3DF41151CF0992371F564C006
:100A8000A058BF4FC32C20FD0CC06EB51EBC699D85
:100A9000BC90BF20B128BD92C89500C0CA94A9F7E8
:100AA00011C06EB51EBC699DB001DEDFEEB41EBC88
:100AB000E99C7001BC90F094BF20B72ABD92C89504
:100AC000CA9479F71124A319B1099A9509F45CC065
:100AD000AA2019F00DB4599AB1DFFD01E058FF4F7B
:100AE000C32C20FD0EC06EB51EBC699DBC90BE20FF
:100AF000B028BD92B080BF20B128B192CA9499F7B6
:100B000016C06EB51EBC699DB001BC90F080AEDF12
:100B100000C0EEB41EBCE99C0094B020B62ABD9281
:100B20001094F120F72AF1920000CA9451F7112491
:100B3000A50FB11D9A9561F6DD2031F1AA2021F0B3
:100B40000DB4599A7BDFC89520FD0CC06EB51EBC54
:100B5000699DBC90BE20B028BD92C89500C03A9453
:100B6000A9F712C06EB51EBC699DB0017DDF9EB5B0
:100B70001EBC999D902DBC909095B922B62ABD922D
:100B8000C8953A9479F7C8951124599A0DB40F90E5
:100B90000F900F90DF91CF911F910F91FF90EF90E9
:100BA000DF90CF90BF90AF909F908F907F906F908D
:100BB0005F904F903F9008956F927F928F92AF9287
:100BC000CF92DF92EF92FF920F931F93DC01922F4F
:100BD0002A2DF92FE42F3701802EC114D104A1F062
:100BE000969596959695A0FC990F949F7001ED9C13
:100BF000700C811CFC9C700C811CFD9C800CEC9C7E
:100C0000600C711C1124811C7B018D01682DA301D6
:100C1000CF010E94AD041F910F91FF90EF90DF90E4
:100C2000CF90AF908F907F906F9008954F925F928A
:100C30006F927F928F92AF92BF92CF92DF92EF929C
:100C4000FF920F931F93CF93DF93EC012B01390198
:100C5000842E842FB9010E9438030E947101B82E9E
:100C60000E947701C038D105FCF490E44916510484
:100C7000DCF49E012B0D311D12161306ACF492010B
:100C8000280F311D121613067CF492E0690E711CB8
:100C9000811C93E0A92E6801082D7301282F4B2D8C
:100CA000B201CE010E94DC05DF91CF911F910F911F
:100CB000FF90EF90DF90CF90BF90AF908F907F909C
:100CC0006F905F904F9008954F925F926F927F92D6
:100CD0008F92AF92BF92CF92DF92EF92FF920F93DB
:100CE0001F93CF93DF93EC012B013901842E842FC6
:100CF000B9010E9438030E947101B82E0E94770149
:100D0000C038D105FCF490E449165104DCF49E018E
:100D10002B0D311D12161306ACF49201280F311D54
:100D2000121613067CF492E0690E711C811C92E08D
:100D3000A92E6801082D7301282F4B2DB201CE0179
:100D40000E94DC05DF91CF911F910F91FF90EF90F2
:100D5000DF90CF90BF90AF908F907F906F905F901B
:100D60004F900895FC0190819F70915081E09A30DE
:100D700008F080E00895CF92DF92FF920F931F93C7
:100D8000CF93DF93C6EFD8E08EE9C82E89E0D82E46
:100D9000FF24F39418828091DE08682F6F7082958B
:100DA0008F700E94C5008B3E71F4F8822C96F9E09A
:100DB000C632DF0779F7DF91CF911F910F91FF9036
:100DC000DF90CF90089500E219E0C8010E94B206BA
:100DD000882361F3F8018081682F6F7082958F708E
:100DE0000E94C5008B3E09F4F882095F1F4FC016B0
:100DF000D10659F7DBCF7F928F929F92AF92BF922D
:100E0000CF92DF92EF92FF920F931F93CF93DF93D6
:100E1000762E142FC22FD02F823009F47FC1833059
:100E200009F40BC1813009F493C0C090DE080C2D89
:100E30000F70C2942FE0C222602F6D0F8C2D8C0F8B
:100E40000E94C5008F3F09F447C0843630F0863ACF
:100E500008F442C0803F09F43FC080E2E82E89E0F8
:100E6000F82E9EE9A92E99E0B92E8C2F0C2E000C9D
:100E7000990BC80ED92ED11C8D2F0D2E000C990B5D
:100E8000080F192F111DC7010E94B206811110C051
:100E900011E0812FDF91CF911F910F91FF90EF9083
:100EA000DF90CF90BF90AF909F908F907F900895EC
:100EB000F7014081642F62956F706C151D0471F409
:100EC0004F704017110651F40D2F2C2F82E00E9415
:100ED000FB06182F811109C010E0DBCFF7E0EF0E01
:100EE000F11CAE14BF0479F6D3CF670186E0C80EBB
:100EF000D11CF701608162956F706C0FC6010E9472
:100F00000604F70160816F706D0FC6010E94FF0338
:100F1000F7018081682F6F70D60F82958F70C80F90
:100F20006D2F8C2F0E94C5008A3F09F0B1CF8D2F05
:100F30008150990BBC012EE0269FC001279F900D88
:100F4000112480529A4FC80FD92FD11D1882A1CFDA
:100F5000642F600F872D820F0E94C500863A08F02B
:100F600062C0843608F0B8CF8056823008F4B4CF1F
:100F7000B0E28B2EB9E09B2E0EE9A02E09E0B02E38
:100F8000EC2E0C2E000CFF08E70CF11CCD2E0D2EC4
:100F9000000CDD08C10ED11CC4010E94B2068823DA
:100FA00099F0F4018081982F92959F709E151F04EF
:100FB00029F48F708C151D0409F48ECFF7E08F0E85
:100FC000911CA814B90441F7F0EFEF2EF8E0FF2EC2
:100FD000A0E2CA2EA9E0DA2EAC2ECC0FBB08A70CDB
:100FE000B11CCD2FDD0FDD0BC10FD11DC7010E943C
:100FF000B206882309F44CCFF701868181110CC019
:101000008081982F92959F709A151B0429F48F70F8
:101010008C171D0609F460CFFCE0EF0EF11CCE1416
:10102000DF0421F735CF803F09F456CF8F3F09F415
:1010300053CF8E3E09F09CCF4FCF642F600F872D8A
:10104000820F0E94C5008E3E09F446CF08F05FC0B3
:101050008256843408F440CF70E2E72E79E0F72E10
:10106000EEE98E2EE9E09E2ECC2E0C2E000CDD0833
:10107000C70CD11CAD2E0D2E000CBB08A10EB11C4F
:10108000C7010E94B206882399F0F7018081982F4A
:1010900092959F709C151D0429F48F708A151B046E
:1010A00009F41ACFF7E0EF0EF11C8E149F0441F7FC
:1010B00050EFE52E58E0F52E60E2C62E69E0D62E00
:1010C000AC2ECC0FBB08A70CB11CCD2FDD0FDD0B58
:1010D000C10FD11DC7010E94B206882309F4D8CEE2
:1010E000F701868181110CC08081982F92959F70A5
:1010F0009A151B0429F48F708C171D0609F4ECCE89
:10110000FCE0EF0EF11CCE14DF0421F7C1CE803FCE
:1011100009F4E2CE8F3F09F09FCFDECE642F600F3F
:10112000872D820F0E94C5008E3F08F05AC08C3F69
:1011300008F0D2CE8456823408F4CECE2091DE0858
:10114000AC2ECC0FBB08C22EC2948FE0C822C501C2
:10115000880F991FC80ED92ED11C8D2EDD0F99082E
:101160007401EE0CFF1C2F70E20EF11CC0E2D9E0FE
:10117000A70CB11C810E911CCE010E94B2068823DF
:1011800009F486CE8881982F92959F709C151D0436
:1011900029F48F708E151F0409F49ECE00EF18E01D
:1011A000C8010E94B2068823B1F0F801868181113E
:1011B0000CC08081982F92959F709A151B0429F47A
:1011C0008F708815190409F487CE045F1F4FF9E06A
:1011D00000321F0729F7279689E0CE39D80761F634
:1011E00057CE8F3F09F0AACF77CE2F923F924F92E2
:1011F0005F926F927F928F929F92AF92BF92CF92A7
:10120000DF92EF92FF920F931F93CF93DF93CDB7AF
:10121000DEB728970FB6F894DEBF0FBECDBF9CEFA8
:10122000A92E95E0B92E20EE822E25E0922E3EEEDC
:10123000E32E35E0F32E6401512C42E0642E53E698
:10124000452E62E6362E70EF272E77247A94760CA0
:1012500081E090E098878F831F81672D812F0E9406
:10126000C5008F3E19F08E3F09F0CEC09FEF910F61
:101270009E83672D892F0E94C5008983E1E0E10FDD
:10128000ED83672D8E2F0E94C5008A83652D812FE7
:101290000E94C5008B83662D812F0E94C5008C8320
:1012A000F981FA3F41F4EF81F8853F97EE0DFF1D7C
:1012B000208220EF29838A818A3F41F4EF81F885DB
:1012C0003D97EE0DFF1D208290EF9A83EB81EA3F60
:1012D00041F4EF81F8853E97EC0DFD1D2082F0EF83
:1012E000FB832C812A3F41F4EF81F8853E97EA0D7C
:1012F000FB1D208280EF8C8389818F5E8230F0F02D
:1013000089818E5F8230D0F000E02FEF472D612F72
:1013100083E00E94FB06882389F0672D8E810E945E
:10132000740481110BC08F8198850F97E9818E0D10
:101330009F1DEC3F09F0B6C0FC0130828A818F5EB0
:101340008230F0F08A818E5F8230D0F000E021E0C0
:10135000472D612F83E00E94FB06882389F0672DCB
:101360008D810E94740481110BC08F8198850D9727
:10137000FA818E0D9F1DFC3F09F097C0FC01308261
:101380008B818F5E8230F0F08B818E5F8230D0F067
:101390000FEF20E0472D612F83E00E94FB0688239A
:1013A00089F0652D812F0E94740481110BC08F81FB
:1013B00098850E97FB818C0D9D1DFC3F09F078C030
:1013C000FC0130828C818F5E8230F0F08C818E5FE8
:1013D0008230D0F001E020E0472D612F83E00E94B1
:1013E000FB06882389F0662D812F0E9474048111E9
:1013F0000BC08F8198850E97FC818A0D9B1DFC3F49
:1014000009F059C0FC0130828F8198850196988738
:101410008F830F9709F020CF639453949EE0A90E19
:10142000B11CEEE0CE0ED11CFEE0EF0EF11C2BE065
:1014300062120BCF10E00EEF8FEEF82E18861F828F
:10144000612F8F810E94C5008336C1F5EF81F88539
:101450003E97E80DF91DF0828F8198850196988757
:101460008F83409769F71F5F9EE0890E911C1B30A8
:1014700029F728960FB6F894DEBF0FBECDBFDF91D7
:10148000CF911F910F91FF90EF90DF90CF90BF9081
:10149000AF909F908F907F906F905F904F903F9014
:1014A0002F900895FC01408249CFFC01408268CF13
:1014B000FC01408287CFFC014082A6CF823661F6D4
:1014C000EF81F8853E97E80DF91D0083C5CFFC013B
:1014D00085818083848185838381848382818383E2
:1014E0008181828311820895CF93DF93EC010E9462
:1014F000670A81E09B85911101C080E08E838A8517
:101500008B8789858A87888589878F8188871F82CD
:10151000DF91CF910895EF92FF921F93CF93DF93C6
:1015200087FF16C080910101482F50E09091DC08A0
:1015300021E030E0911102C022E030E081504217FA
:1015400053076CF4DF91CF911F91FF90EF900895B6
:1015500084FF08C0809101018230A0F78F5F8093E3
:101560000101F0CF83FFEECF1092DF0580910101E2
:10157000813009F4A6C048F0823021F781E08093E1
:10158000030185E080937005DDCF8091DC0888231E
:1015900009F48CC08091DA089091DB080197909350
:1015A000DB088093DA088EED98E00E94670A84EEEB
:1015B00098E00E94740A40EE55E029E081E090E056
:1015C000FA01E80FF91FDF01AA58BD4F3C913083A3
:1015D00001968F309105A1F72150425F5F4F211195
:1015E000EDCF88ED97E0BC0149E021E030E0FB0160
:1015F000E20FF31F5081E258FF4F50832F5F3F4FA0
:101600002F303105A1F74150625F7F4F4111EDCF7F
:101610008E57910925E0803E920729F740EE55E06C
:1016200029E090E080E0FC01E158FF4FE40FF51F56
:10163000108201968E309105B1F72150425F5F4FC5
:101640002111EFCFD0E0C0E0CE01805E964F0E9426
:10165000670A2796CE37D105B9F780EF98E00E9448
:10166000740A8CEF98E00E94740A88E099E00E9466
:10167000740A84E199E00E94740AD0E0C0E010E0AE
:10168000CE018256964F7C010E94670AC7010E94D4
:10169000B20681111F5F2696C432D10589F71093D7
:1016A000D6088091DC0881508093DC0881E080932B
:1016B00003018091DC08811145CF82E08093020113
:1016C00041CF809303018AE0809370058BE0809383
:1016D000670538CFFC018281818383818283848185
:1016E000838385818483808185830895CF93DF936D
:1016F0008EED98E00E946A0B84EE98E00E946A0BDF
:101700008091EC088093EB088091ED088093EC08C1
:101710008091EE088093ED088091EF088093EE08A9
:101720008091EA088093EF0860EE75E044E0FB01E9
:1017300059E090E080E09F01280F391FD901A350A4
:10174000BF4FAC9121583F4FE901A88301968E30DD
:10175000910589F751503E965111EBCF4150625897
:101760007F4F4111E4CF40EE55E029E081E090E069
:10177000FA01E80FF91F3081EA58FD4F30830196D6
:101780008F309105A9F72150425F5F4F2111EECFB5
:10179000C0EFD8E0CE010E946A0B88858F838985CF
:1017A00088878A8589878B858A878E818B872C9607
:1017B00089E0C032D80771F78EE999E00E946A0B80
:1017C00084EA99E00E946A0B8AEA99E00E946A0B17
:1017D00080EB99E00E946A0B86EB99E00E946A0B0D
:1017E0008CEB99E00E946A0BD0E0C0E0CE01805EF5
:1017F000964F0E946A0B2796CE37D105B9F7809194
:10180000DA089091DB0801969093DB088093DA0860
:101810008091DC08853018F48F5F8093DC08DF91BD
:10182000CF9108955C98FC012591CF012EBD000059
:101830000DB407FEFDCF6150B1F75C9A08950F9388
:101840001F93CF93DF93809164008E7F8093640019
:1018500080917A00806480937A0080917A0086FD7E
:10186000FCCFC0917800D09179000E94E703AB01D2
:10187000BC01CE01B0E0A0E0DC01992788278C01F3
:101880009D01040F151F261F371FC901B8012091A4
:101890006400216020936400611571058105910544
:1018A00031F0DF91CF911F910F910C94F51DDF91D5
:1018B000CF911F910F9108951F920F920FB60F9223
:1018C00011248F939F938091E1009091E100937F89
:1018D0009093E10083FF0FC01092E90091E0909394
:1018E000EB001092EC0092E39093ED0010928605CD
:1018F00098E09093F00082FF22C093E09093E9007B
:101900009091F200992319F09AE39093E800909156
:101910007705992341F09091770591509093770541
:10192000911101C05D9A90918505992341F09091A4
:101930008505915090938505911101C0289A84FFE7
:1019400018C08091E2008E7E81608093E2008091D9
:10195000E1008F7E8093E100809178058E7E80612A
:10196000809378059F918F910F900FBE0F901F90DD
:10197000189580FFF7CF8091E2008E7E8061809382
:10198000E2008091E1008E7E8093E10080917805F5
:101990008E7E8160E5CF1F920F920FB60F921124B9
:1019A000CF92DF92EF92FF920F931F932F933F936B
:1019B0004F935F936F937F938F939F93AF93BF9357
:1019C000EF93FF93CF93DF93CDB7DEB76C97DEBF76
:1019D000CDBF1092E9008091E80083FF25C068E048
:1019E000CE0145960E94050382EF8093E8008D8921
:1019F00087FF39C09091E80090FFFCCF982F907638
:101A000009F034C19E894F89588D2F89F88C911126
:101A100031C0803861F5809176058093F100109295
:101A2000F1008EEF8093E8006C960FB6F894DEBF5D
:101A30000FBECDBFDF91CF91FF91EF91BF91AF91DD
:101A40009F918F917F916F915F914F913F912F91D6
:101A50001F910F91FF90EF90DF90CF900F900FBEEE
:101A60000F901F9018959EEF9093E800C7CF1092AB
:101A7000F100D5CF913059F48111D3CF41305105C8
:101A800081F6809176058D7F80937605CACF93305D
:101A900049F48111C6CF4130510519F68091760580
:101AA0008260F2CF953041F48091E80080FFFCCF56
:101AB00020682093E300B5CF963009F0A9C00B8DC4
:101AC0001C8D22E01092E9001092740510927305AB
:101AD000F2122EC010927205109271050E94D4026B
:101AE0001F8299E09983FA8291E09E8390EA988719
:101AF0009AEF99872091730530917405275F3F4FC6
:101B00003C832B838D831092E90010927405109210
:101B10007305109372050093710549E050E0BE0112
:101B20006F5F7F4F80E00E94AE020E94D40279CFA7
:101B300010937205009371050E94B801DC011296A2
:101B40000D911C910115110509F451C1D801ED91B8
:101B5000FC910480F581E02DBE016B5E7F4FC801D2
:101B60000995009709F03EC1F80100851185EACF7B
:101B7000F3E0FF120EC08F89882309F440C0823041
:101B800061F440E867E08BE291E00E947B02811102
:101B900048CF81E28093EB0047CF813029F440E8C1
:101BA0006BE08FE191E0F1CF833099F70E94B801AB
:101BB000DC011296ED90FC908E010F5F1F4F6801C3
:101BC000E114F10479F0D701ED91FC910680F781E1
:101BD000E02DB801C7010995080F111DF701E08438
:101BE000F184EECFD8011C92F60101900020E9F7B4
:101BF0003197BF016C197D0940E0C601C6CF69E08D
:101C000071E0FB01449150E080E80E94AE0209CFF0
:101C1000973009F4BECF983021F481E08093F10031
:101C200000CF993009F0FDCE837009F0B2CFE8E320
:101C3000F1E081E031E096E32191222371F080937D
:101C4000E9003093EB00DF0111972C912093EC0019
:101C50009093ED008F5F873079F78EE78093EA00ED
:101C60001092EA008F8980938605DBCE8B8D9C8D48
:101C70001092E9001092740510927305909372050A
:101C800080937105898D811192C08E899D89913AC9
:101C900049F4813209F07DCF47E050E068E071E01F
:101CA00080E0B3CF913209F074CF833269F48F8929
:101CB000988DB0E0A0E08093040190930501A0937B
:101CC0000601B0930701ADCE803269F48091E8003F
:101CD00082FFFCCF67E088E091E00E9405038BEF74
:101CE0008093E8009ECE823209F09BCE8F8980934C
:101CF0000F01EEEFFFE7859194918B3F9C4D51F1E1
:101D0000E0E0F8E08091080190910901A0910A01BA
:101D1000B0910B01803B9440A105B105F1F4809195
:101D20000F0180FD1AC0EE3F8AE0F80789F587E7CA
:101D300097E791838083809160008093750588E1A7
:101D40009BE00FB6F894A895809360000FBE909327
:101D5000600067CEEEEFFAE0D5CF808191818737C2
:101D6000974709F05ECEA8958091600088618093C6
:101D700060008091750580936000EE3F2AE0F207D5
:101D800089F08091FE0A9091FF0A9183808349CE69
:101D9000808191818737980751F29093FF0A809351
:101DA000FE0AC5CF1092FF0A1092FE0A3ACE0E9498
:101DB000B801DC0112960D911C910115110509F471
:101DC000E8CED801ED91FC910190F081E02DBE01AB
:101DD0006B5E7F4FC8010995811123CEF801008504
:101DE0001185EBCF181619060CF41BCED2CEF1E0FC
:101DF000FF12BECE6DE071E004CF0F920FB68F934D
:101E00009F93EF93FF93809159018D5F8D3708F079
:101E10008D5780935901EAE5F1E080818E4F8083F0
:101E200091819F4F918382818F4F828383818F4FD6
:101E30008383EEE5F1E080818F5F808381818F4F26
:101E4000818382818F4F828383818F4F83838FB180
:101E50008F6066991C9B88278F3681F4809158018A
:101E6000981B963068F0E0E0F8E087E78083818394
:101E700088E180936000F0936000FFCF9093580159
:101E8000FF91EF919F918F910FBE0F9018951F9228
:101E90000F920FB60F9211248F939F9382E496E0D6
:101EA000909389008093880081E0809365059F91DD
:101EB0008F910F900FBE0F901F90189510928C0568
:101EC00010928B0588EE93E0A0E0B0E080938D0542
:101ED00090938E05A0938F05B093900582E491E0D6
:101EE00090938A05809389058FEF9FEF90939605D5
:101EF000809395051092D5081092D6081092D708B5
:101F00001092D9081092D8081092DB081092DA08C3
:101F10001092DC081092DD081092DE081092E4089E
:101F20001092EA081092F0081092F6081092FC083D
:101F3000109202091092080910920E0910921409C9
:101F400010921A09E0E2F9E010828683379699E050
:101F5000EE39F907C9F710929E091092A409109260
:101F6000AA091092B0091092B6091092BC09E2ECCD
:101F7000F9E08AE09AE0108233968E179F07D9F72E
:101F80001092D9050895CDB7DEB72C97DEBFCDBF2F
:101F9000789483E084BD83E085BD81E080936E000A
:101FA000E1E8F0E083E08083E0E881E08083E1E93C
:101FB00083E08083E0E981E08083E1EC87E0808357
:101FC000E3EC81E08083E0EC82E08083E2EC81E07E
:101FD0008083EAE787E080838068808310928605AB
:101FE00010927605109278058091D70081608093D9
:101FF000D70080EA8093D80089B5806189BD89B512
:10200000826089BD09B400FEFDCF81E090E00E94AE
:102010004C038091D8008F7C80618093D8008091A0
:10202000E000807F8093E0008091E1008E7E8093CD
:10203000E1008DE08093E200559A209A81EC809334
:102040007C0081EF85B987EE84B982E38BB982EF9A
:102050008AB9769A6E9880EF81BB10BA80E58CBD04
:1020600081E08DBD0E9460035F9A0E9460035C98CE
:10207000ECEAF0E085918EBD00000DB407FEFDCFC7
:10208000E93BC1F75C9A81E88093640021E02093EA
:10209000650062E089EB90E00E94120C68E08BEB37
:1020A00090E00E94120C9FB7F89422E436E030933F
:1020B00089002093880083E0809380008BE18093E7
:1020C0008100109285001092840080916F008260E0
:1020D00080936F009FBF5E9AE4E1F0E08BE59DEF97
:1020E00060EF7FEF25913591559145912851354904
:1020F00009F4CA018093620190936301259135919F
:10210000559145912851354909F4BA0160938705E5
:10211000709388058BEA0E9444030E944D0110923F
:10212000D9081092D8080E941F0C8091E0058111F7
:1021300007C00E94400431E03093E0050E94DD00BA
:102140005E98F89480916505811109C083B781601C
:1021500083BF7894889583B78E7F83BFF2CF109228
:102160006505789480916F0589832FE741E050E001
:1021700061E070E084EE94E00E94100462E085EC7F
:1021800090E00E94120C2FEF47E051E061E070E018
:1021900084E691E00E94100462E083EC90E00E94EB
:1021A000120C898182508E3F40F199819F5F998303
:1021B000A981A0936F055E9AB0917005B983B33180
:1021C00008F00DC2EB2FF0E0FA83E983E651FF4EF1
:1021D0000C94751E04110411041104110411501102
:1021E0005911591159115911A51454155415541553
:1021F000541554153D1C461C461C809164058F5F88
:10220000809364051982D4CF89819A81880F991FA0
:1022100029813A81820F931F00916F05080F192FB2
:10222000111D28E13CE040E070E060E090E080E0DB
:102230000E9464068091D8089091D9080C9769F49F
:102240001092D9081092D80889819A8101968370DA
:1022500099279A838983809370050E943504882387
:1022600009F4BDC18091D8089091D9080196909346
:10227000D9088093D80880916E05803218F48F5F5A
:1022800080936E050E948004882309F4A8C1809180
:102290006E05803209F0A3C185E0809370059FC16F
:1022A00086E08093700510926E051092D908109206
:1022B000D8080E9435048823C9F1909170059B834A
:1022C0008091D8089091D90801969093D90880936D
:1022D000D8080E948004898388E00E942A04182F6D
:1022E00084E00E942A04AB81A73009F49CC0A83086
:1022F00009F41DC1A63099F48091D8089091D908AD
:10230000499768F0B981B3FF0AC00E941F0C87E0AB
:10231000809370058BE080936C0510926E05809120
:102320006E058E3F18F48F5F80936E05F0916F05F8
:10233000F98380917005873009F459C1883009F418
:10234000F9C2863009F04BC1D0906E052F2F30E0D6
:102350003A83298389E28D1508F4FFC0AD2DAA5276
:10236000BB0B7D01EE0CFF1C890128E63BE540E03C
:10237000B70190E080E00E94160667E070E06E19F9
:102380007F0909811A812AE63DE640E090E080E07D
:102390000E94160682EEF82EFD0CBCE1BF1508F473
:1023A000EFC0ED2DF0E0E450FF4F808109811A81EC
:1023B0002CE632E840E061E070E0082E000C990B5A
:1023C0000E94160681EE8D0D8C3108F0E7C0ED2DD0
:1023D000F0E0E450FF4F908109811A8128ED37E841
:1023E00040E065E170E0E0E5F0E0DF01A91BB10944
:1023F00097FDB395CD010E941606BCE1BF1508F408
:10240000EBC0ED2DF0E0E450FF4F808109811A818F
:1024100022E439E840E06AE270E0082E000C990BF3
:102420000E941606DCC030916605882339F0809141
:102430006D058A3018F485E08093700580916B05F6
:10244000112391F090916C059A3070F490916A0587
:10245000282F220F220F920F9093D5089AE0909385
:1024600070059BE09093670533FF5BC090916C050E
:102470009F5F90936C0532FF57C090916D059F5FF1
:1024800090936D0590916C05913238F090916D05A7
:10249000913218F098E090937005E981E5FF07C04C
:1024A00090916A05992319F0915090936A05F981EA
:1024B000F6FF13C090916A05933078F49F5FE82F80
:1024C000EE0FEE0FE90F23E0E29FF0011124EE532F
:1024D000F64F2081211190936A05398134FF15C090
:1024E000873098F4E0916A05EC5F982F990F990F67
:1024F000E90F93E0E99FF0011124EE53F64F90812C
:10250000992319F08F5F80936B05A981A7FF07CFEF
:1025100080916B05882309F402CF815080936B056D
:10252000FECE10926C05A7CF10926D05ABCFB9818E
:10253000B3FF0CC00E9440040E94DD008BE080933A
:102540006C0580936D0587E080937005E981E2FF5B
:10255000E6CE87E080937005E2CE09811A8128E6F5
:102560003BE540E070E060E090E080E00E9416060D
:1025700009811A812AE63DE640E067E070E006CF77
:10258000EAE3ED1508F01ECF09811A812CE632E846
:1025900040E061E070E08AE190E012CFEAE3ED15FF
:1025A00010F00C94531D09811A8128ED37E840E0A2
:1025B00065E170E086E390E00E941606FCE1FF15FD
:1025C00008F01FCF09811A8122E439E840E06AE26D
:1025D00070E08AE190E024CF2AE32D1598F380E0A3
:1025E00090E0892B09F4ACCD0E940000A9CD809128
:1025F0006E05B981AB2FB0E0BE83AD838D3108F09D
:1026000049C0E82EF12C662777276E197F09660FDF
:10261000771F8D0128E63BE540E090E080E00E94D6
:102620001606B7016A5F7F4F660F771F0D811E8107
:102630002AE63DE640E090E080E00E941606E6E3F0
:10264000F1E0EE19FF09C0800C2C000CDD0884E3DA
:1026500090E07C01EC18FD080D811E812CE632E82B
:1026600040E061E070E0C7010E9416060D811E8106
:1026700028ED37E840E065E170E0C6014B960E9426
:1026800016060D811E8122E439E840E06AE270E01E
:10269000C701C6CEE0916B05F0E0EC5EFE4FE08036
:1026A000F12CF194E194F108F0EE2F2EF5E03F2E9D
:1026B0008D809E80712C612CF401E456FF4FFA83CB
:1026C000E9832301B12CA12CD12CC12C94012C5ACB
:1026D0003F4F3C832B83F501EE51FC4FE20DF31D80
:1026E00080818401813031F009811A81823021F4A6
:1026F0000B811C810A0D1B1D20E73AE940E0B70160
:10270000C6010E94640680916B05880F880F909126
:102710006A05890F8415150499F48091D808909161
:10272000D90860E370E00E94611E489748F40D816B
:102730001E8122EC30EB40E0B701C6010E94160674
:1027400033E1C30ED11C8FEF481A580A93E0A90E4B
:10275000B11CACE4CA16D10409F0BDCFB2E1EB0E56
:10276000F11CECE08E0E911CF4E06F0E711C2CE05D
:10277000220E311C38E16316710409F0A2CF80915A
:102780006B0573E0B72E0D811E818B9D000D111D11
:1027900011242CE532EB40E070E060E08BE490E047
:1027A0000E94640680916B05880F880F90916A05DE
:1027B000890F0D811E818B9D000D111D112423EBAE
:1027C00031ED40E062E070E083E790E00E94640653
:1027D000E0916B05EE0FEE0F80916A05E80FEB9D1F
:1027E000F0011124EE53F64F0081802F90E08C0110
:1027F000000F111F080F191F8D819E81080F191FCF
:102800002EE230ED40E061E170E084E590E00E946E
:102810006406E0916B05EE0FEE0F80916A05E80FFC
:10282000EB9DF0011124EE53F64F8081813009F0C9
:10283000D6CE0D811E812DED36ED40E060E270E0D8
:1028400082E590E00E946406E0916B05EE0FEE0FCA
:1028500080916A05E80FEB9DF0011124EE53F64FCD
:102860008181928124E6E22EF12CB7010E94611E43
:102870008B01000F111F060F171FAD81BE810A0FBC
:102880001B1F23EF37ED40E069E270E081E790E045
:102890000E946406E0916B05EE0FEE0F80916A05D1
:1028A000E80FEB9DF0011124EE53F64F81819281E8
:1028B000B7010E94611E4AE0C42ED12CB6010E94CD
:1028C000611E8B01000F111F060F171FED81FE8186
:1028D0000E0F1F1F23EF37ED40E069E270E086E73F
:1028E00090E00E946406E0916B05EE0FEE0F809180
:1028F0006A05E80FEB9DF0011124EE53F64F81813C
:102900009281B7010E94611EB6010E94611E8C0176
:10291000000F111F080F191F2D813E81020F131F79
:1029200023EF37ED40E069E270E08BE790E00E9432
:10293000640655CE3981032F10E02AE13CE340E0E4
:1029400069E170E084E290E0F2CF1092DB0810922F
:10295000DA08809167058093700510926E054091AA
:10296000D5081092DC081092DE081092DF08109251
:10297000E0081092E1081092E2081092E308E0E209
:10298000F9E08FEF8083379699E0EE39F907D1F7B8
:1029900080939E098093A4098093AA098093B0092B
:1029A0008093B6098093BC098093F0088093FC085B
:1029B000809308098093140903E020E060ED7BE038
:1029C00080E00E941D030E946C01782E0E94770116
:1029D000682E892E81EE95E09A83898310E09EE02F
:1029E000E92EF12C0EE020E0412F882DB3010E944A
:1029F0001D03E981FA8197010E94710181932150A1
:102A00003040D1F70E9477011F5FA981BA811E96DD
:102A1000BA83A983193031F7AEEEEA2EA5E0FA2E7B
:102A2000912CD12CC12C11E006E0B7E08B2E8CE06C
:102A3000782E66246394E1E0F0E0FA83E983612F65
:102A400089810E94C500813F09F40AC508F0D2C4FB
:102A50008A3E09F43CC58C3E09F4EBC429813A81D5
:102A60002F5F3F4F3A8329832F30310541F71F5F96
:102A70003EE0E30EF11C1A30F1F6D092D608109227
:102A8000010180E880930001109202010E94590424
:102A9000E6E2F9E084EA99E02FEF208337968E177B
:102AA0009F07D9F71092680580916F058A870E9469
:102AB0003504882309F416C29091700599830E9409
:102AC0008004D82E8091D8089091D90801969093CF
:102AD000D9088093D80889818B50823008F0BBC513
:102AE0001091DF05111190C580910001803809F027
:102AF0008EC580916805882309F40AC55CEF452ED0
:102B000055E0552E60EE862E65E0962E7EEEA72EC1
:102B100075E0B72E1401712CE2E0CE2EF1E66F2E97
:102B2000EE24EA94EC0CA1E0B0E0BC87AB87FB8418
:102B30006E2D8F2D0E94C5008A3F19F08D3F09F040
:102B4000DAC0BFEFBF0DB8876E2D8B2F0E94C50076
:102B50008983E1E0EF0DE9876E2D8E2F0E94C5007D
:102B60008B83672D8F2D0E94C5008D836C2D8F2D3B
:102B70000E94C5008F83F981FF3E49F4EB85FC85F7
:102B80003F97EA0DFB1D20EF208330EF39838B81C7
:102B90008F3E49F4EB85FC853D97EA0DFB1D90EFD8
:102BA0009083A0EFAB83BD81BF3E49F4EB85FC85EC
:102BB0003E97E20DF31D20EF208330EF3D838F81A0
:102BC0008F3E49F4EB85FC853E97E40DF51D90EFB3
:102BD0009083A0EFAF83B981B03F09F1BA3FF9F01C
:102BE0008B2F8D7F8D3FD9F000E02FEF4E2D6F2D75
:102BF00081E00E94FB06882391F06E2D88850E945B
:102C0000740481110CC08B859C850F97E9818A0D16
:102C10009B1DEC3F09F066C4E0E6DC01EC93BB8150
:102C2000B03F09F1BA3FF9F08B2F8D7F8D3FD9F07E
:102C300000E021E04E2D6F2D81E00E94FB068823ED
:102C400091F06E2D89850E94740481110CC08B85D2
:102C50009C850D97EB818A0D9B1DEC3F09F045C4C7
:102C6000E0E6DC01EC93BD81B03F09F1BA3FF9F039
:102C70008B2F8D7F8D3FD9F00FEF20E04E2D6F2DE4
:102C800081E00E94FB06882391F0672D8F2D0E9422
:102C9000740481110CC08B859C850E97ED81820D8B
:102CA000931DEC3F09F024C4E0E6DC01EC93BF8106
:102CB000B03F09F1BA3FF9F08B2F8D7F8D3FD9F0EE
:102CC00001E020E04E2D6F2D81E00E94FB0688235D
:102CD00091F06C2D8F2D0E94740481110CC08B8596
:102CE0009C850E97EF81840D951DEC3F09F003C480
:102CF000E0E6DC01EC93EB85FC853196FC87EB8705
:102D00003F9709F014CFC3947394FEE04F0E511C0B
:102D10002EE0220E311C3EE0A30EB11C8BE0C81247
:102D2000FFCEF12CE12C0E2D612F8E2D0E94C500BF
:102D3000813609F0E3C3F7013E97E80DF91D9AEFDC
:102D400090839CE9980F923488F4F7013E97E80D40
:102D5000F91DFA83E98381508083612F802F0E94BF
:102D6000C500843619F4A981BA811C92BFEFEB1A11
:102D7000FB0AE0E1EE16F104B1F61F5FFEE08F0EF4
:102D8000911C1B3071F6109268058091D608811154
:102D900039C09091DE082091E408422F42954F708F
:102DA000392F32953F7043132DC02F709F70291318
:102DB00029C010926E05E091D50823E0E29FF00152
:102DC0001124EE53F64F91E090832091DA08309170
:102DD000DB0832832183E2ECF9E02AE03AE09081DB
:102DE000913009F48F5F33962E173F07C1F7883172
:102DF00009F0F2C38DE08093700580E18093670550
:102E00000E94DD006091DE08862F82958F70898395
:102E10006F700E94C5008A3F79F481E08093DF05DE
:102E2000698189ED95E00E9406046091DE086F706B
:102E300089ED95E00E94FF03EEE9F9E022EC39E02C
:102E400041E09091DE088081692F62956F70582F64
:102E500052955F70651310C09F70582F5F70951367
:102E60000BC09091D60891509093D6088F608083C4
:102E7000911102C04093EA0836962E173F0709F7D2
:102E8000D2FE0EC080910001803809F0C4C381E0F9
:102E9000809302019091DC08911180E08093010100
:102EA00080910201813009F4C2C3823009F4CAC39F
:102EB0008091DF058823B1F02091D8083091D9089E
:102EC00023703327232B71F48A3018F48F5F80939B
:102ED000DF058091DF05893029F481E080930201CC
:102EE000109203014091D5086BE574E982E00E94DD
:102EF0002A039B01482FFA85EF2FF0E0FC87EB8730
:102F00008091D708A82FBB27A1950CF4B095BD01DF
:102F10008F0190E080E00E9464060B851C852DE8FF
:102F200030EF40E070E060E088E790E00E946406E7
:102F30000091D50810E00F5F1F4FC801880F991F3F
:102F4000080F191FEB85FC850E0F1F1F2FE431EFB3
:102F500040E061E170E089E790E00E9464068091C2
:102F6000DA089091DB086AE070E00E94611E8B0134
:102F7000000F111F060F171F2B853C85020F131F13
:102F80002FE431EF40E062E370E089E790E00E94D7
:102F900064068091DA089091DB0864E670E00E9494
:102FA000611E8C01000F111F080F191F8B859C8556
:102FB000080F191F2FE431EF40E066E370E089E766
:102FC00090E00E946406412C612CAB85BC85DC96A8
:102FD000BA83A983EB85FC85F096FC83EB832B8574
:102FE0003C85225E3F4F3E832D832B843C843BE116
:102FF000230E311C8B849C8482E4880E911CAB844C
:10300000BC849FE3A90EB11C8091D7081AEFE12E72
:10301000E81A8E2D840D80340CF044C0893F0CF4E6
:1030200041C0712CE82E880FFF08C72CCC0CCC0CAB
:10303000CC0CAAEFCA0E0C2C000CDD08809100010C
:103040008750990BC816D9064CF5662D872D0E941E
:10305000C500843608F445C3863A08F034C30B85AE
:103060001C85B3E08B9F000D111D11240C521140E3
:103070002BEA3FE441E0B701C6010E946406662DD9
:10308000872D0E94C500803F49F409811A8121EBF8
:103090003AEF40E0B701C6010E9416067394BFE004
:1030A000B71518F66394E8E04E0EFBE06F12ACCF54
:1030B00010E2E12E19E0F12E0EE9C02E09E0D02E2B
:1030C000AB84BC842DE2A20EB11CC7010E94B206E3
:1030D0002091D708022E000C330B8823F9F0D7017A
:1030E0008C91682F6F70B8E06B9FB0011124621B48
:1030F000730B6650710982958F70E8E08E9FC00156
:103100001124850121EB3AEF40E006970E94160654
:10311000F7E0EF0EF11CCE14DF04B9F6BEEBEB2E98
:10312000B3E0FB2ECB84DC842FE0C20ED11C8701E0
:1031300000521A4FC8010E94B206882379F1D801C3
:103140002C918091D8089091D90864E270E00E9497
:10315000611E6CE070E00E94611E8B01000F111F68
:10316000060F171F0C0D1D1D622F6F70B8E06B9FAF
:10317000B00111248091D708681B710987FD7395F0
:103180006650710922952F70E8E02E9FC00111242E
:1031900021EB3AEF40E006970E941606F6E0EF0EAC
:1031A000F11C22EEE21623E0F20609F0C0CFE0EFB8
:1031B000EE2EE8E0FE2EF0E2CF2EF9E0DF2EAB841B
:1031C000BC8435E4A30EB11C8B849C8488E4880EF7
:1031D000911CD7011C91012F0F7012951F70602F49
:1031E000812F0E94C500803F11F1C7010E94B206E5
:1031F0008823E9F0B8E00B9FB00111248091D70833
:10320000681B710987FD739566507109E8E01E9F80
:10321000C00111240697D70116962C918401211123
:1032200001C0850121EB3AEF40E00E941606BCE0A8
:10323000EB0EF11CCE14DF0461F6E091E4088E2F52
:103240008F70F8E08F9F700111248091D708E81AE1
:10325000F10887FDF39426E0E21AF108E295EF7099
:1032600038E0E39FF001112436978091EA080B853E
:103270001C85085E1F4F8823B1F08091D80890917B
:10328000D90868E270E00E94611E63E09695879518
:103290006A95E1F78C01000F111F080F191F8B852C
:1032A0009C85080F191F21EB3AEF40E0B701CF01D1
:1032B0000E9416068091DE08682F6F7098E0699F63
:1032C000B00111249091D708691B710997FD73957E
:1032D0006650710982958F70A8E08A9FC001112401
:1032E00006972091DF050B851C85263008F48BC2DC
:1032F000055B1F4F21EB3AEF40E00E9416069091CC
:10330000DF058FEF890F883028F58091D9050B856F
:103310001C85B3E09B9F000D111D11240350110962
:10332000682F6F70E8E06E9FB00111249091D7086C
:10333000691B710997FD73956351710982958F70AF
:10334000F8E08F9FC00111242BE838ED40E043974F
:103350000E9416068091000187FD28C0009101019E
:1033600010E09091DC0822E030E0992311F030E089
:1033700020E0200F311F8901000F111F020F131FC2
:103380009091030130E020E0911102C02FE030E085
:10339000020F131F2B853C85020F131F26E63DE30A
:1033A00040E070E060E090E00E946406809170056B
:1033B0008D3009F041C280916E058A3208F026C234
:1033C000A82FAA52BB0B7D01EE0CFF1C0B851C85A0
:1033D00028E63BE540E0B70190E080E00E94160659
:1033E00067E070E06E197F090B851C852AE63DE6D3
:1033F00040E01EC2833F09F453C008F444C08B3F31
:1034000009F02CCBC89CC0011124DC01A05EB64F92
:103410005D016981CD010E940604612FC5010E94F2
:10342000FF03E981FA813E97EE0DFF1D1082C394E0
:1034300015CB979CC00111249C012051374F590195
:103440006981C9010E940604612FC5010E94FF0322
:10345000E981FA813E97EE0DFF1D10829394FECA1A
:10346000698184EE98E00E940604612F84EE98E062
:103470000E94FF036092EA08E981FA813E97EE0D0F
:10348000FF1D1082EBCA698184EE98E00E94060459
:10349000612F84EE98E00E94FF031092EA08ECCFBF
:1034A000D09EC0011124FC01E256F64F5F016981F4
:1034B000CF010E940604612FC5010E94FF03E9812C
:1034C000FA813E97EE0DFF1D1082D394C7CA698121
:1034D0008EED98E00E940604612F8EED98E00E9428
:1034E000FF03CACFDC016C929ACBDC016C92BBCBA0
:1034F000DC016C92DCCBDC016C92FDCB803609F0F8
:1035000020CCF7013E97E80DF91DADEFA08319CC53
:10351000D5FE1FC000E02FEF40E060E080E00E9499
:10352000FB068823B1F00E94760B6091DE0862955D
:103530006F7061506F708EED98E00E9406040E94DB
:1035400090040E94BB060E94F50881E08093680504
:103550001CCCD6FC1EC0D7FE2DC00FEF20E040E0F3
:1035600060E080E00E94FB06882321F10E94760B38
:103570006091DE08615F6F708EED98E00E94FF033E
:103580000E9490040E94BB060E94F5080E94590404
:10359000DCCF00E021E040E060E080E00E94FB063C
:1035A0008823C9F20E94760B6091DE0862956F70E5
:1035B0006F5FC0CFD4FEE9CB01E020E040E060E0E7
:1035C00080E00E94FB06882309F4DFCB0E94760B83
:1035D0006091DE086F5FCFCFE091D508E73150F4FE
:1035E000EF5F33E0E39FF0011124EE53F64F80814B
:1035F000813029F48DE08093700587E0FFCB8DE06A
:10360000809370058EE0FACB1A3009F039CC8D2DFD
:103610000E948B0A35CC803609F042CC80910301A0
:10362000882309F43DCC82E08093020139CC80915B
:103630000001825080930001803609F039CC10924D
:10364000020136CC809100018E5F809300018038AA
:1036500009F02ECCF4CF80916E058F5F80936E05BC
:103660008B3209F03FCC8091D50810926E05909175
:1036700067059E3029F599819D30F1F49AE0909389
:1036800070058F5FA3E08A9FF0011124EE53F64F7F
:1036900092E090838093D50880916A058F5F809334
:1036A0006A05853009F01ECC10926A0580916B0581
:1036B0008F5F80936B0516CC8BE08093700512CCE6
:1036C000909370050FCC85018E3E19F08B3E49F426
:1036D000840121EB3AEF40E0B701C6010E941606D3
:1036E000CECC81018C3FA9F38D3FA9F40091D8087D
:1036F0001091D908A3E016950795AA95E1F70370F4
:103700001127C801880F991F080F191FED81FE812D
:103710000E0F1F1FDECF8E3FA9F40091D808109125
:10372000D908E3E016950795EA95E1F703701127AC
:10373000C801880F991F080F191F2B813C81020FA8
:10374000131FC7CF8A3F89F555245394662D872DC3
:10375000850D0E94C5008A3F21F453943EE0531228
:10376000F5CF4FEF450D63EA74E982E00E942A032A
:103770009B01482F0091D8081091D90863E0169555
:1037800007956A95E1F703701127C801880F991F03
:10379000080F191F8B859C85080F191FB701C601DB
:1037A0000E9464067A94750C6ACC8F3E09F067CC4F
:1037B00055245394662D872D850D0E94C5008F3E9C
:1037C00021F453949EE05912F5CF4FEF450D6DEC67
:1037D00074E982E00E942A039B01482F0091D808D7
:1037E0001091D90883E0169507958A95E1F7037043
:1037F0001127C801880F991F080F191FAB85BC85B9
:103800000A0F1B1FCBCF065D1F4F74CD0B851C8588
:1038100028E63BE540E070E060E090E080E00E9458
:1038200016060B851C852AE63DE640E067E070E061
:1038300090E080E00C9410128E3011F00C94EF1296
:1038400060916E056A3210F00C94EF12E62EF12CA6
:10385000662777276E197F09660F771F0B851C85F2
:1038600028E63BE540E090E080E00E941606B701C4
:103870006A5F7F4F660F771FB7CD81E18093700538
:1038800010926E051092D9081092D8080E94350443
:10389000882301F1B0917005B9838091D808909187
:1038A000D90801969093D9088093D8080E94800483
:1038B0008B8388E00E942A04E981E13109F45EC02B
:1038C000E23109F470C080916E058E3F18F48F5F6D
:1038D00080936E0520916F05298380917005813159
:1038E00009F476C0823111F00C94EF1280916E05CC
:1038F0008D3108F0D5C0F981EF2FF0E0FA83E9832C
:10390000E82EF12C662777276E197F09660F771F3F
:103910008F0128E63BE540E090E080E00E9416063B
:10392000B7016A5F7F4F660F771F09811A812AE608
:103930003DE640E090E080E00E941606E6E3F1E01C
:10394000EE19FF09E0800E2C000CFF0809811A8196
:103950002CE93EE840E06BE070E084E390E08E19F3
:103960009F090E94160609811A8126EF33E940E07B
:1039700060E270E0C70109970C9410128091D8089A
:103980009091D908499708F49ECFFB81F3FF9BCF14
:103990000E941F0C82E1809370058BE080936C0580
:1039A00010926E0590CF882309F48DCF80916C051D
:1039B0008A3008F088CF80916B05880F880F90912E
:1039C0006A05890F8093D5088AE0809370057BCFC4
:1039D0009981892F90E09A8389838C0128E63BE5C1
:1039E00040E070E060E090E080E00E94160609810F
:1039F0001A812AE63DE640E067E070E090E080E072
:103A00000E941606F0906E0582EE8F0D8D3158F5EE
:103A1000EF2DF0E0E450FF4F808109811A812CE9FD
:103A20003EE840E06BE070E0082E000C990B0E942D
:103A3000160681EE8F0D8C3118F5EF2DF0E0E45075
:103A4000FF4F908109811A8126EF33E940E060E25F
:103A500070E0ECE2F0E0DF01A91BB10997FDB3953E
:103A6000CD010C941012AAE3AF1518F709811A8141
:103A70002CE93EE840E06BE070E08AE190E0D7CFCF
:103A8000BAE3BF1510F00C94EF1209811A8126EFEA
:103A900033E940E060E270E082E190E00C941012C3
:103AA00087E00C944D112CE12F1510F40C94EF12BB
:103AB0000C9401128F929F92AF92BF92CF92DF929D
:103AC000EF92FF92CF93DF93EC01688179818A8135
:103AD0009B81611571058105910521F464E279ED01
:103AE0008BE597E02DE133EF41E050E00E94FE1DB1
:103AF00049015A019B01AC01A7EAB1E40E941D1ED5
:103B00006B017C01ACEEB4EFA50194010E942B1E69
:103B1000C60ED71EE81EF91EF7FE06C081E0C81AC1
:103B2000D108E10880E8F80AC882D982EA82FB82DB
:103B3000C701B6019F77DF91CF91FF90EF90DF90A3
:103B4000CF90BF90AF909F908F9008958F929F924B
:103B5000AF92BF92CF92DF92EF92FF9260911001ED
:103B600070911101809112019091130161157105FD
:103B70008105910521F464E279ED8BE597E02DE173
:103B800033EF41E050E00E94FE1D49015A019B01C4
:103B9000AC01A7EAB1E40E941D1E6B017C01ACEEF2
:103BA000B4EFA50194010E942B1EC60ED71EE81E7D
:103BB000F91EF7FE06C081E0C81AD108E10880E8C6
:103BC000F80AC0921001D0921101E0921201F09215
:103BD0001301C701B6019F77FF90EF90DF90CF9060
:103BE000BF90AF909F908F90089560931001709355
:103BF000110180931201909313010895052E97FBF4
:103C00001EF400940E94151E57FD07D00E94301E1E
:103C100007FC03D04EF40C94151E5095409530953A
:103C200021953F4F4F4F5F4F089590958095709528
:103C300061957F4F8F4F9F4F08950E94521EA59F01
:103C4000900DB49F900DA49F800D911D1124089597
:103C5000B7FF0C941D1E0E941D1E821B930B08951E
:103C6000A1E21A2EAA1BBB1BFD010DC0AA1FBB1F80
:103C7000EE1FFF1FA217B307E407F50720F0A21BF2
:103C8000B30BE40BF50B661F771F881F991F1A945F
:103C900069F760957095809590959B01AC01BD0189
:103CA000CF010895A29FB001B39FC001A39F700DE3
:103CB000811D1124911DB29F700D811D1124911D34
:103CC0000895AA1BBB1B51E107C0AA1FBB1FA61763
:103CD000B70710F0A61BB70B881F991F5A95A9F7B5
:103CE00080959095BC01CD010895EE0FFF1F0590C2
:0A3CF000F491E02D0994F894FFCF41
:103CFA0080000001FFFFFFFF00E10000000000005C
:103D0A000100000000000E1F2B2B83909BA6B0BA67
:103D1A00C3CCD4DCE3EAF0F6FB0004080C0F12145F
:103D2A001617181819191900C1808100000000001F
:103D3A000000CC016403ED01E2013302F1010F023C
:00000001FF
