:100000000C949B000C94C3000C94C3000C94C3008C
:100010000C94C3000C94C3000C94C3000C94C30054
:100020000C94C3000C94C3000C944A0C0C94B90CAF
:100030000C94C3000C94C3000C94C3000C94C30034
:100040000C94C3000C94350F0C94C3000C94C300A3
:100050000C94C3000C94C3000C94C3000C94EB0EDE
:100060000C94C3000C94C3000C94C3000C94C30004
:100070000C94C3000C94C3000C94C3000C94C300F4
:100080000C94C3000C94C3000C94C3000C94C300E4
:100090000C94C3000C94C3000C94C3000C94C300D4
:1000A0000C94C3000C94C3000C94C300080B000212
:1000B0000202000009040000010202000005240001
:1000C0001001052401010104240206052406000193
:1000D0000705810310004009040100020A00000026
:1000E00007050202400000070583024000000403E8
:1000F000090412010002EF02014041233680000191
:100100000102030141726475696E6F204C4C43001B
:1001100041726475626F7900D5F08D14A1C881CFEA
:10012000D9F1AF2000DB20C0A0D92181FFA800A811
:1001300000A83F004C0F11241FBECFEFDAE0DEBF56
:10014000CDBF11E0A0E0B1E0E0EEFBE302C005901E
:100150000D92AA35B107D9F72AE0AAE5B1E001C0AE
:100160001D92A431B207E1F710E0CBE9D0E004C062
:100170002197FE010E94E81DCA39D107C9F70E94E4
:10018000B10F0C94EE1D0C9400008823A1F08F3069
:1001900091F0662381F06A3071F06150770B9EE038
:1001A000969FF001979FF00D1124E651FA4FE80F4A
:1001B000F11D808108958FEF08952AE234E0EAEE80
:1001C000F5E0A0E0B0E0BD0180E00E943A010E94AD
:1001D0002901BD011296A20FB31F8217930799F34D
:1001E0008F5F9F4F21F4AF5FBF40DB0178F00E942B
:1001F0002A0340E0509191056091920580E20E94AF
:100200002E01729A0E94F302A0E0B0E07CEF0E94FF
:100210002A034A2F509191055B0F60919205611D51
:1002200082E00E942E01832F71FD822F70FD81914B
:100230000E944601759518F42150304019F011962E
:10024000AA2389F7729A0E94F30221153105F9F663
:1002500008950E94A701982F0C94A10172980E9402
:100260004601862F0E944601852F0E944601842F59
:100270000C944601462F50919105570F60919205BD
:10028000681F83E00E942E011EBC08958EBD0000F1
:100290008EB50DB407FEFCCF0895FC01809190054A
:1002A000882311F13FB7F89482E08093E900209110
:1002B000F200822F90E01816190614F481E090E005
:1002C000882339F0289844E640938F054091F10047
:1002D0004083222339F02091F200211103C02BE644
:1002E0002093E8003FBF08958FEF9FEF08952FB749
:1002F000F89483E08093E9009091E800892F807260
:1003000095FF04C09091F20080E4891B2FBF0895EF
:100310008091870581110DC082E08093830584E080
:1003200080938405109286051092850581E0809364
:10033000870583E895E008950E94A701982F0C9403
:10034000A7010DB407FEFDCF8EB5729A08950DB4C6
:1003500007FEFDCF8EB51EBC089540916E015091F1
:100360006F0120916C0130916D0142175307B4F475
:100370009091E8009570E1F39091E80092FD19C02A
:100380008093F10080916E0190916F0101968F73BF
:100390009927892B19F48EEF8093E80080916E01E4
:1003A00090916F01019690936F0180936E0181E0AF
:1003B000089580E00895EF92FF920F931F93CF93DB
:1003C000DF93F82E192FE62E042F81E0860F880F79
:1003D0000E94AD0183E00E94AD01CF2DD12FEC0E24
:1003E000FD2EF11CCE15DF05B9F007FF13C0FE018D
:1003F00084910E94AD01182F80E00E94AD018123FD
:1004000021968111EFCFDF91CF911F910F91FF9036
:10041000EF9008958881EDCF81E0F5CFDF92EF92E4
:10042000FF920F931F93CF93DF93D82E8A01EB0196
:100430007B01E40EF51ECE15DF0559F0D7FE12C084
:10044000FE0184910E94AD0121968111F4CF0FEF3E
:100450001FEFC801DF91CF911F910F91FF90EF9097
:10046000DF9008958881EECF0F931F93CF93DF9392
:100470001F92CDB7DEB782E0898342E450E06CEA98
:1004800070E080E80E940E020E948801DC01129652
:100490000D911C910115110589F0D801ED91FC9188
:1004A0000280F381E02DBE016F5F7F4FC801099587
:1004B00097FD04C0F80100851185ECCF89810F906C
:1004C000DF91CF911F910F910895615030F02091ED
:1004D000F100FC0120830196F8CF289884E68093F0
:1004E0008F050895CF93DF931F92CDB7DEB7698351
:1004F000DC01ED91FC910280F381E02D41E050E0C0
:10050000BE016F5F7F4F09950F90DF91CF910895E6
:1005100083E08093E9008091F200882319F08AE358
:100520008093E80008950E94770190E00895CF93AA
:10053000DF931F92CDB7DEB7FC018485958597FDCB
:1005400008C02FEF3FEF358724870F90DF91CF91C1
:100550000895CE0101960E944D01019719F48981F9
:1005600090E0F3CF8FEF9FEFF0CF0F931F93CF93D8
:10057000DF931F92CDB7DEB78C01FC018485958592
:1005800097FF0BC0CE0101960E944D01019771F4B7
:10059000898190E0F80195878487F80184859585A5
:1005A0000F90DF91CF911F910F9108958FEF9FEFE3
:1005B000F1CFFC018485958597FD0BC09FB7F8941A
:1005C00082E08093E9008091F2009FBF90E0019665
:1005D00008959FB7F89482E08093E9008091F2003B
:1005E0009FBF90E00895729885E00E94460180E0E8
:1005F0000E94460180FDFBCF729A089590E0409FD3
:1006000009F4142E5527090E151E600D711D851F46
:1006100011240C9419030F9303E020E00E94FE02C2
:100620000E949C01782F0E94A101682F892F0F91B1
:100630000895462F50917401570F60917501681FFE
:1006400083E00E942E011EBC089572980E9446010C
:10065000729A089586E00C942503FC010E94C80359
:10066000319728F068517C4F8F4F9F4FF9CFAB01E6
:10067000FC010E94C803641775078E079F07C8F323
:10068000089585E090E00C942D038F929F92AF9295
:10069000BF92CF92DF92EF92FF920F931F93CF936F
:1006A000DF936C017B018A0180910B01882309F49F
:1006B0005AC080919005882309F455C08091720139
:1006C00080FF05C08091E00082608093E000E80137
:1006D000B12C8AEFA82E93E0892E2AE3922E209740
:1006E00011F4BB20C9F10E947701811108C0AA94BE
:1006F000AA20C9F181E090E00E942D03F0CF8C1771
:100700001D0611F00CF08C2F9FB7F8948092E90031
:100710002091E80025FD02C09FBFE1CF282F30E0E7
:10072000C21BD30BF701815020F041914093F1009F
:10073000FACFE20EF31EBB2021F09092E800B12C1C
:10074000EBCF8091E80085FDE7CF9092E800BB24D5
:10075000B394209709F3F3CF5D9884E680937101F9
:10076000101611063CF081E090E0F601938382833D
:1007700010E000E0C801DF91CF911F910F91FF9031
:10078000EF90DF90CF90BF90AF909F908F900895A3
:10079000A8E6B1E02FB7F8947D918D919C9166B554
:1007A0002FBFA89B05C06F3F18F47F5F8F4F9F4FEF
:1007B00022E0660F771F881F991F2A95D1F70895A9
:1007C000FC019081907F6F70692B60830895FC011C
:1007D00090819F7080E1689FB0011124692B608334
:1007E000089530E73CBDDC0130E8439FC00111248F
:1007F000A80FB91F5E91352F6111372F3C93C89513
:1008000000C052235EBD0197A9F704D003D030E5A4
:100810000DB43CBD089590916101982329F0909109
:100820007805982381E009F080E0089580917605AD
:10083000882329F081508093760581E0089580E037
:100840000895ECECF9E080E092E0873161F090836C
:10085000128211828F5F33968831B9F710927C052E
:1008600010927D0508951092110A1092130A1092A9
:10087000120AF0CF8091E708811114C08091E80836
:100880008F70843069F018F4813030F40895853029
:1008900031F08A3040F008951092E108089588E020
:1008A0008093E10808958CE0FBCF9091EE08292F0A
:1008B00022952F70821303C09F7081E0961380E011
:1008C000089580917805809361019FB19095907F04
:1008D000669B98601C9B9460909378058095892313
:1008E00008951F93CF93DF93CAE2D9E01FEF6E8183
:1008F0006F3F59F062956F70CE010E94E7036E81E1
:100900006F70CE010E94E0031E83279689E0C83AEB
:10091000D80769F7DF91CF911F9108953F924F92C9
:100920005F926F927F928F929F92AF92BF92CF927F
:10093000DF92EF92FF920F931F93CF93DF9300D03C
:100940001F92CDB7DEB73A01862EA6E7B1E0B70118
:10095000E02FDD24382E96959695969531E061FD31
:1009600034E060FD330F62FD32955FEF539F7001FD
:10097000E094F0947595679575956795759567956D
:10098000462F4F3F4CF44095941B20FD440F489F49
:10099000600C711C8D1C4FEF17FF0BC0300E20FF39
:1009A00002C0000F111F601A710A8D0817FD839491
:1009B000EE2750E845030E0EA00DB11D5E1B351647
:1009C00008F0352E57E0541B591714F4952FD39483
:1009D00050E85319482E552421FD02C043185508EC
:1009E00020FF02C0440C551C11245B824A82932EC6
:1009F00000907401700C00907501801C19C07298F1
:100A000033E03EBD640C751C811CAA24831509F0DB
:100A1000A3940CD08EBC07D07EBC05D06EBC03D096
:100A20001EBC03D00895C8950000C895C8950895C8
:100A3000641875088108E3DF41151CF0992371F5EE
:100A400064C0A058BF4FC32C20FD0CC06EB51EBCA7
:100A5000699DBC90BF20B128BD92C89500C0CA94C2
:100A6000A9F711C06EB51EBC699DB001DEDFEEB402
:100A70001EBCE99C7001BC90F094BF20B72ABD92C7
:100A8000C895CA9479F71124A319B1099A9509F464
:100A90005CC0AA2019F00DB4729AB1DFFD01E058D4
:100AA000FF4FC32C20FD0EC06EB51EBC699DBC90CF
:100AB000BE20B028BD92B080BF20B128B192CA94A8
:100AC00099F716C06EB51EBC699DB001BC90F08050
:100AD000AEDF00C0EEB41EBCE99C0094B020B62A84
:100AE000BD921094F120F72AF1920000CA9451F7B8
:100AF0001124A50FB11D9A9561F6DD2031F1AA20D0
:100B000021F00DB4729A7BDFC89520FD0CC06EB544
:100B10001EBC699DBC90BE20B028BD92C89500C087
:100B20003A94A9F712C06EB51EBC699DB0017DDF75
:100B30009EB51EBC999D902DBC909095B922B62A69
:100B4000BD92C8953A9479F7C8951124729A0DB45C
:100B50000F900F900F90DF91CF911F910F91FF9009
:100B6000EF90DF90CF90BF90AF909F908F907F904D
:100B70006F905F904F903F9008956F927F928F9209
:100B8000AF92CF92DF92EF92FF920F931F93DC010F
:100B9000922F2A2DF92FE42F3701802EC114D10472
:100BA000A1F0969596959695A0FC990F949F70014B
:100BB000ED9C700C811CFC9C700C811CFD9C800CBD
:100BC000EC9C600C711C1124811C7B018D01682D33
:100BD000A301CF010E948E041F910F91FF90EF900F
:100BE000DF90CF90AF908F907F906F9008954F924D
:100BF0005F926F927F928F92AF92BF92CF92DF926D
:100C0000EF92FF920F931F93CF93DF93EC012B0191
:100C10003901842E842FB9010E9419030E94A70173
:100C2000B82E0E94A101C038D105FCF490E4491609
:100C30005104DCF49E012B0D311D12161306ACF489
:100C40009201280F311D121613067CF492E0690EF2
:100C5000711C811C93E0A92E6801082D7301282FB7
:100C60004B2DB201CE010E94BD05DF91CF911F91A6
:100C70000F91FF90EF90DF90CF90BF90AF908F904B
:100C80007F906F905F904F9008954F925F926F9218
:100C90007F928F92AF92BF92CF92DF92EF92FF92AC
:100CA0000F931F93CF93DF93EC012B013901842E17
:100CB000842FB9010E9419030E94A701B82E0E9437
:100CC000A101C038D105FCF490E449165104DCF4CC
:100CD0009E012B0D311D12161306ACF49201280F44
:100CE000311D121613067CF492E0690E711C811CF2
:100CF00092E0A92E6801082D7301282F4B2DB20117
:100D0000CE010E94BD05DF91CF911F910F91FF9001
:100D1000EF90DF90CF90BF90AF908F907F906F90CB
:100D20005F904F900895FC0190819F70915081E0F9
:100D30009A3008F080E00895CF92DF92FF920F93EF
:100D40001F93CF93DF93C0E0D9E088EAC82E89E0F3
:100D5000D82EFF24F39418828091E808682F6F70D2
:100D600082958F700E94C5008B3E71F4F8822C969C
:100D7000F9E0C033DF0779F7DF91CF911F910F9131
:100D8000FF90DF90CF9008950AE219E0C8010E9419
:100D90009306882361F3F8018081682F6F70829534
:100DA0008F700E94C5008B3E09F4F882095F1F4FC7
:100DB000C016D10659F7DBCF7F928F929F92AF92E8
:100DC000BF92CF92DF92EF92FF920F931F93CF9338
:100DD000DF93762E142FC22FD02F823009F47FC1DB
:100DE000833009F40BC1813009F493C0C090E80846
:100DF0000C2D0F70C2942FE0C222602F6D0F8C2D2E
:100E00008C0F0E94C5008F3F09F447C0843630F034
:100E1000863A08F442C0803F09F43FC08AE2E82ED7
:100E200089E0F82E98EAA92E99E0B92E8C2F0C2E85
:100E3000000C990BC80ED92ED11C8D2F0D2E000C35
:100E4000990B080F192F111DC7010E9493068111DC
:100E500010C011E0812FDF91CF911F910F91FF9072
:100E6000EF90DF90CF90BF90AF909F908F907F904A
:100E70000895F7014081642F62956F706C151D0411
:100E800071F44F704017110651F40D2F2C2F82E092
:100E90000E94DC06182F811109C010E0DBCFF7E0BB
:100EA000EF0EF11CAE14BF0479F6D3CF670186E0D4
:100EB000C80ED11CF701608162956F706C0FC6017E
:100EC0000E94E703F70160816F706D0FC6010E94F9
:100ED000E003F7018081682F6F70D60F82958F70C5
:100EE000C80F6D2F8C2F0E94C5008A3F09F0B1CF2B
:100EF0008D2F8150990BBC012EE0269FC001279FAA
:100F0000900D112486519A4FC80FD92FD11D1882E8
:100F1000A1CF642F600F872D820F0E94C500863AF3
:100F200008F062C0843608F0B8CF8056823008F4EA
:100F3000B4CFBAE28B2EB9E09B2E08EAA02E09E0CE
:100F4000B02EEC2E0C2E000CFF08E70CF11CCD2E61
:100F50000D2E000CDD08C10ED11CC4010E949306A9
:100F6000882399F0F4018081982F92959F709E15A7
:100F70001F0429F48F708C151D0409F48ECFF7E03F
:100F80008F0E911CA814B90441F7FAEFEF2EF8E088
:100F9000FF2EAAE2CA2EA9E0DA2EAC2ECC0FBB0897
:100FA000A70CB11CCD2FDD0FDD0BC10FD11DC7016B
:100FB0000E949306882309F44CCFF70186818111A2
:100FC0000CC08081982F92959F709A151B0429F46C
:100FD0008F708C171D0609F460CFFCE0EF0EF11C3A
:100FE000CE14DF0421F735CF803F09F456CF8F3F71
:100FF00009F453CF8E3E09F09CCF4FCF642F600F82
:10100000872D820F0E94C5008E3E09F446CF08F05E
:101010005FC08256843408F440CF7AE2E72E79E04C
:10102000F72EE8EA8E2EE9E09E2ECC2E0C2E000C38
:10103000DD08C70CD11CAD2E0D2E000CBB08A10E77
:10104000B11CC7010E949306882399F0F7018081A3
:10105000982F92959F709C151D0429F48F708A1506
:101060001B0409F41ACFF7E0EF0EF11C8E149F0455
:1010700041F75AEFE52E58E0F52E6AE2C62E69E0F8
:10108000D62EAC2ECC0FBB08A70CB11CCD2FDD0F7C
:10109000DD0BC10FD11DC7010E949306882309F4FF
:1010A000D8CEF701868181110CC08081982F92954E
:1010B0009F709A151B0429F48F708C171D0609F474
:1010C000ECCEFCE0EF0EF11CCE14DF0421F7C1CE14
:1010D000803F09F4E2CE8F3F09F09FCFDECE642F30
:1010E000600F872D820F0E94C5008E3F08F05AC006
:1010F0008C3F08F0D2CE8456823408F4CECE2091B4
:10110000E808AC2ECC0FBB08C22EC2948FE0C822D8
:10111000C501880F991FC80ED92ED11C8D2EDD0F49
:1011200099087401EE0CFF1C2F70E20EF11CCAE24C
:10113000D9E0A70CB11C810E911CCE010E94930630
:10114000882309F486CE8881982F92959F709C15EC
:101150001D0429F48F708E151F0409F49ECE0AEF2A
:1011600018E0C8010E9493068823B1F0F801868137
:1011700081110CC08081982F92959F709A151B0445
:1011800029F48F708815190409F487CE045F1F4F66
:10119000F9E00A321F0729F7279689E0C83AD807ED
:1011A00061F657CE8F3F09F0AACF77CE2F923F92AC
:1011B0004F925F926F927F928F929F92AF92BF9267
:1011C000CF92DF92EF92FF920F931F93CF93DF9313
:1011D000CDB7DEB728970FB6F894DEBF0FBECDBFF0
:1011E00096E0A92E96E0B92E2AEE822E25E0922EC8
:1011F00038EFE32E35E0F32E6401512C42E0642EEB
:1012000053E6452E62E6362E70EF272E77247A9429
:10121000760C81E090E098878F831F81672D812F66
:101220000E94C5008F3E19F08E3F09F0CEC09FEF9F
:10123000910F9E83672D892F0E94C5008983E1E06D
:10124000E10FED83672D8E2F0E94C5008A83652DE7
:10125000812F0E94C5008B83662D812F0E94C500BF
:101260008C83F981FA3F41F4EF81F8853F97EE0DC9
:10127000FF1D208220EF29838A818A3F41F4EF817C
:10128000F8853D97EE0DFF1D208290EF9A83EB814C
:10129000EA3F41F4EF81F8853E97EC0DFD1D208279
:1012A000F0EFFB832C812A3F41F4EF81F8853E97D4
:1012B000EA0DFB1D208280EF8C8389818F5E823056
:1012C000F0F089818E5F8230D0F000E02FEF472D63
:1012D000612F83E00E94DC06882389F0672D8E81D0
:1012E0000E94550481110BC08F8198850F97E98169
:1012F0008E0D9F1DEC3F09F0B6C0FC0130828A8143
:101300008F5E8230F0F08A818E5F8230D0F000E014
:1013100021E0472D612F83E00E94DC06882389F0BD
:10132000672D8D810E94550481110BC08F81988596
:101330000D97FA818E0D9F1DFC3F09F097C0FC01AF
:1013400030828B818F5E8230F0F08B818E5F8230B5
:10135000D0F00FEF20E0472D612F83E00E94DC06E4
:10136000882389F0652D812F0E94550481110BC0BF
:101370008F8198850E97FB818C0D9D1DFC3F09F098
:1013800078C0FC0130828C818F5E8230F0F08C81DD
:101390008E5F8230D0F001E020E0472D612F83E0A6
:1013A0000E94DC06882389F0662D812F0E94550457
:1013B00081110BC08F8198850E97FC818A0D9B1D32
:1013C000FC3F09F059C0FC0130828F81988501965D
:1013D00098878F830F9709F020CF639453949EE0F2
:1013E000A90EB11CEEE0CE0ED11CFEE0EF0EF11CFA
:1013F0002BE062120BCF10E00EEF8FEEF82E188666
:101400001F82612F8F810E94C5008336C1F5EF8155
:10141000F8853E97E80DF91DF0828F819885019639
:1014200098878F83409769F71F5F9EE0890E911C14
:101430001B3029F728960FB6F894DEBF0FBECDBF3C
:10144000DF91CF911F910F91FF90EF90DF90CF90A0
:10145000BF90AF909F908F907F906F905F904F90D4
:101460003F902F900895FC01408249CFFC014082BB
:1014700068CFFC01408287CFFC014082A6CF823634
:1014800061F6EF81F8853E97E80DF91D0083C5CF21
:10149000FC0185818083848185838381848382812B
:1014A00083838181828311820895CF93DF93EC013E
:1014B0000E94480A81E09B85911101C080E08E83E3
:1014C0008A858B8789858A87888589878F818887A0
:1014D0001F82DF91CF910895EF92FF921F93CF93D8
:1014E000DF9387FF16C080910D01482F50E0909147
:1014F000E60821E030E0911102C022E030E08150A6
:10150000421753076CF4DF91CF911F91FF90EF903A
:10151000089584FF08C080910D018230A0F78F5F8D
:1015200080930D01F0CF83FFEECF1092E9058091FB
:101530000D01813009F4A6C048F0823021F781E026
:1015400080930F0185E080938205DDCF8091E608CE
:10155000882309F48CC08091E4089091E5080197F4
:101560009093E5088093E40888EE98E00E94480A8A
:101570008EEE98E00E94550A4AEE55E029E081E09F
:1015800090E0FA01E80FF91FDF01AA58BD4F3C9126
:10159000308301968F309105A1F72150425F5F4F54
:1015A0002111EDCF82EE97E0BC0149E021E030E06F
:1015B000FB01E20FF31F5081E258FF4F50832F5F72
:1015C0003F4F2F303105A1F74150625F7F4F4111EE
:1015D000EDCF8E57910925E08A3E920729F74AEE12
:1015E00055E029E090E080E0FC01E158FF4FE40F76
:1015F000F51F108201968E309105B1F72150425FA0
:101600005F4F2111EFCFD0E0C0E0CE01865D964F55
:101610000E94480A2796CE37D105B9F78AEF98E09D
:101620000E94550A86E099E00E94550A82E199E0FD
:101630000E94550A8EE199E00E94550AD0E0C0E070
:1016400010E0CE018855964F7C010E94480AC701E0
:101650000E94930681111F5F2696C432D10589F737
:101660001093E0088091E60881508093E60881E0BD
:1016700080930F018091E608811145CF82E080932D
:101680000E0141CF80930F018AE0809382058BE0A9
:101690008093790538CFFC018281818383818283A5
:1016A0008481838385818483808185830895CF931A
:1016B000DF9388EE98E00E944B0B8EEE98E00E943C
:1016C0004B0B8091F6088093F5088091F708809382
:1016D000F6088091F8088093F7088091F9088093C4
:1016E000F8088091F4088093F9086AEE75E044E008
:1016F000FB0159E090E080E09F01280F391FD901DC
:10170000A350BF4FAC9121583F4FE901A8830196E8
:101710008E30910589F751503E965111EBCF4150D3
:1017200062587F4F4111E4CF4AEE55E029E081E055
:1017300090E0FA01E80FF91F3081EA58FD4F30833D
:1017400001968F309105A9F72150425F5F4F21111B
:10175000EECFCAEFD8E0CE010E944B0B88858F8375
:10176000898588878A8589878B858A878E818B87FB
:101770002C9689E0CA32D80771F788EA99E00E946E
:101780004B0B8EEA99E00E944B0B84EB99E00E9490
:101790004B0B8AEB99E00E944B0B80EC99E00E9486
:1017A0004B0B86EC99E00E944B0BD0E0C0E0CE01E1
:1017B000865D964F0E944B0B2796CE37D105B9F721
:1017C0008091E4089091E50801969093E508809354
:1017D000E4088091E608853018F48F5F8093E6086E
:1017E000DF91CF9108955C98FC012591CF012EBD2A
:1017F00000000DB407FEFDCF6150B1F75C9A08956B
:10180000FC0101900020E9F73197AF01481B590B0B
:10181000BC0183E995E00C9445030F931F93CF938C
:10182000DF93809164008E7F8093640080917A00C2
:10183000806480937A0080917A0086FDFCCFC0910D
:101840007800D09179000E94C803AB01BC01CE01A1
:10185000B0E0A0E0DC01992788278C019D01040FEE
:10186000151F261F371FC901B80120916400216090
:1018700020936400611571058105910531F0DF91B8
:10188000CF911F910F910C94681DDF91CF911F9103
:101890000F9108951F920F920FB60F9211248F93FC
:1018A0009F938091E1009091E100937F9093E100FC
:1018B00083FF0FC01092E90091E09093EB0010922B
:1018C000EC0092E39093ED001092900598E09093D5
:1018D000F00082FF22C093E09093E9009091F20023
:1018E000992319F09AE39093E8009091710199235C
:1018F00041F090917101915090937101911101C04B
:101900005D9A90918F05992341F090918F059150A8
:1019100090938F05911101C0289A84FF18C080917F
:10192000E2008E7E81608093E2008091E1008F7EF4
:101930008093E100809172018E7E806180937201BC
:101940009F918F910F900FBE0F901F90189580FF61
:10195000F7CF8091E2008E7E80618093E2008091DB
:10196000E1008E7E8093E100809172018E7E816025
:10197000E5CF1F920F920FB60F921124CF92DF92F4
:10198000EF92FF920F931F932F933F934F935F9389
:101990006F937F938F939F93AF93BF93EF93FF9337
:1019A000CF93DF93CDB7DEB76C97DEBFCDBF10927C
:1019B000E9008091E80083FF25C068E0CE014596EC
:1019C0000E94650282EF8093E8008D8987FF39C00D
:1019D0009091E80090FFFCCF982F907609F034C1E9
:1019E0009E894F89588D2F89F88C911131C080388C
:1019F00061F5809173018093F1001092F1008EEFF8
:101A00008093E8006C960FB6F894DEBF0FBECDBF92
:101A1000DF91CF91FF91EF91BF91AF919F918F9106
:101A20007F916F915F914F913F912F911F910F91F6
:101A3000FF90EF90DF90CF900F900FBE0F901F9010
:101A400018959EEF9093E800C7CF1092F100D5CF84
:101A5000913059F48111D3CF4130510581F68091F5
:101A600073018D7F80937301CACF933049F4811144
:101A7000C6CF4130510519F6809173018260F2CFD3
:101A8000953041F48091E80080FFFCCF20682093DE
:101A9000E300B5CF963009F0A9C00B8D1C8D22E074
:101AA0001092E90010926F0110926E01F2122EC096
:101AB00010926D0110926C010E9434021F8299E015
:101AC0009983FA8291E09E8390EA98879AEF9987AA
:101AD00020916E0130916F01275F3F4F3C832B8334
:101AE0008D831092E90010926F0110926E01109395
:101AF0006D0100936C0149E050E0BE016F5F7F4FC4
:101B000080E00E940E020E94340279CF10936D0192
:101B100000936C010E948801DC0112960D911C91CA
:101B20000115110509F451C1D801ED91FC91048012
:101B3000F581E02DBE016B5E7F4FC80109950097CE
:101B400009F03EC1F80100851185EACFF3E0FF12EC
:101B50000EC08F89882309F440C0823061F440E8C8
:101B600067E080E191E00E94DB01811148CF81E2D2
:101B70008093EB0047CF813029F440E86BE084E0AC
:101B800091E0F1CF833099F70E948801DC01129631
:101B9000ED90FC908E010F5F1F4F6801E114F1047E
:101BA00079F0D701ED91FC910680F781E02DB80125
:101BB000C7010995080F111DF701E084F184EECFEC
:101BC000D8011C92F60101900020E9F73197BF017E
:101BD0006C197D0940E0C601C6CF6EEE70E0FB01D6
:101BE000449150E080E80E940E0209CF973009F43A
:101BF000BECF983021F481E08093F10000CF99307E
:101C000009F0FDCE837009F0B2CFE5E1F1E081E0AB
:101C100031E096E32191222371F08093E900309323
:101C2000EB00DF0111972C912093EC009093ED00D5
:101C30008F5F873079F78EE78093EA001092EA0091
:101C40008F8980939005DBCE8B8D9C8D1092E9005F
:101C500010926F0110926E0190936D0180936C0150
:101C6000898D811192C08E899D89913A49F4813282
:101C700009F07DCF47E050E064E071E080E0B3CF51
:101C8000913209F074CF833269F48F89988DB0E076
:101C9000A0E08093000190930101A0930201B09312
:101CA0000301ADCE803269F48091E80082FFFCCF61
:101CB00067E084E091E00E9465028BEF8093E8008A
:101CC0009ECE823209F09BCE8F8980930B01EEEF7E
:101CD000FFE7859194918B3F9C4D51F1E0E0F8E056
:101CE0008091040190910501A0910601B091070136
:101CF000803B9440A105B105F1F480910B0180FD7A
:101D00001AC0EE3F8AE0F80789F587E797E79183E5
:101D10008083809160008093700188E19BE00FB622
:101D2000F894A895809360000FBE9093600067CEF2
:101D3000EEEFFAE0D5CF808191818737974709F0A0
:101D40005ECEA8958091600088618093600080914C
:101D5000700180936000EE3F2AE0F20789F08091E5
:101D6000FE0A9091FF0A9183808349CE8081918100
:101D70008737980751F29093FF0A8093FE0AC5CFE8
:101D80001092FF0A1092FE0A3ACE0E948801DC01EE
:101D900012960D911C910115110509F4E8CED80198
:101DA000ED91FC910190F081E02DBE016B5E7F4FC3
:101DB000C8010995811123CEF80100851185EBCF6B
:101DC000181619060CF41BCED2CEF1E0FF12BECECF
:101DD00062EF70E004CF0F920FB68F939F93EF9353
:101DE000FF93809163018D5F8D3708F08D5780934D
:101DF0006301E4E6F1E080818E4F808391819F4F03
:101E0000918382818F4F828383818F4F8383E8E622
:101E1000F1E080818F5F808381818F4F8183828118
:101E20008F4F828383818F4F83838FB18F606699B9
:101E30001C9B88278F3681F480916201981B963015
:101E400068F0E0E0F8E087E78083818388E18093B1
:101E50006000F0936000FFCF90936201FF91EF91DB
:101E60009F918F910FBE0F9018951F920F920FB6F2
:101E70000F9211248F939F9382E496E090938900B0
:101E80008093880081E0809377059F918F910F90D8
:101E90000FBE0F901F901895109296051092950501
:101EA00088EE93E0A0E0B0E08093970590939805CA
:101EB000A0939905B0939A0582E491E090939405DC
:101EC000809393058FEF9FEF9093A00580939F05DC
:101ED0001092DF081092E0081092E1081092E308D7
:101EE0001092E2081092E5081092E4081092E608B9
:101EF0001092E7081092E8081092EE081092F40889
:101F00001092FA08109200091092060910920C091A
:101F1000109212091092180910921E0910922409A9
:101F2000EAE2F9E010828683379699E0E83AF90709
:101F3000C9F71092A8091092AE091092B409109234
:101F4000BA091092C0091092C609ECECF9E084E1DC
:101F50009AE0108233968E179F07D9F71092E30507
:101F60000895CDB7DEB7AF97DEBFCDBF789483E0DD
:101F700084BD83E085BD81E080936E00E1E8F0E000
:101F800083E08083E0E881E08083E1E983E080838F
:101F9000E0E981E08083E1EC87E08083E3EC81E0AD
:101FA0008083E0EC82E08083E2EC81E08083EAE7FA
:101FB00087E080838068808310929005109273017F
:101FC000109272018091D70081608093D70080EADF
:101FD0008093D80089B5806189BD89B5826089BD4B
:101FE00009B400FEFDCF81E090E00E942D038091B6
:101FF000D8008F7C80618093D8008091E000807F42
:102000008093E0008091E1008E7E8093E1008DE07E
:102010008093E200559A209A81EC80937C0081EFB6
:1020200085B987EE84B984E38BB984EF8AB9769A4F
:102030006E9880EF81BB10BA80E58CBD81E08DBDCC
:102040000E9441035F9A0E9441035C98E8E1F1E03D
:1020500085918EBD00000DB407FEFDCFE532C1F7BE
:102060005C9A81E88093640011E01093650062E05F
:1020700085E291E00E94F30B68E087E291E00E9424
:10208000F30B9FB7F89422E436E030938900209355
:10209000880083E0809380008BE180938100109220
:1020A00085001092840080916F00826080936F00A1
:1020B0009FBF5E9AE4E1F0E08BE59DEF60EF7FEF7C
:1020C00025913591559145912851354909F4CA0119
:1020D00080937401909375012591359155914591A7
:1020E0002851354909F4BA0160939105709392051E
:1020F0008BEA0E9425031092E3081092E2080E94E6
:102100000D0C8091EA05811106C00E9421041093F4
:10211000EA050E94DD005E98F894809177058111B0
:1021200009C083B7816083BF7894889583B78E7F19
:1021300083BFF2CF109277057894109181052FE735
:1021400041E050E061E070E086EF94E00E94F1032E
:1021500062E081E391E00E94F30B2FEF47E051E052
:1021600061E070E086E791E00E94F10362E08FE2B7
:1021700091E00E94F30B8EEF810F1F5F8E3F30F4D2
:10218000809176058F5F8093760510E0109381052E
:102190005E9A80918205833108F0E9C1E82EF12C26
:1021A000F701EB52FF4E0C94E81DE810E810E81020
:1021B000E810E8103011391139113911391158145A
:1021C00000150015001500150015CA1BD31BD31BE5
:1021D000C701880F991F8E0D9F1D00918105080F63
:1021E000192F111D28E13CE040E070E060E090E034
:1021F00080E00E9445068091E2089091E3080C97E8
:1022000061F41092E3081092E2082FEFE21AF20A4A
:1022100033E0E322FF24E09282050E941604882323
:1022200009F4A5C18091E2089091E308019690938A
:10223000E3088093E20880918005803218F48F5F74
:10224000809380050E946104882309F490C18091E5
:102250008005803209F08BC185E08093820587C1BB
:1022600086E080938205109280051092E308109218
:10227000E2080E9416048823B1F100918205809142
:10228000E2089091E30801969093E3088093E208B6
:102290000E946104182F88E00E940B04F82E84E04D
:1022A0000E940B04073009F492C0083009F40FC1F2
:1022B000063091F48091E2089091E308499760F02C
:1022C00013FF0AC00E940D0C87E0809382058BE00B
:1022D00080937E0510928005809180058E3F18F4D2
:1022E0008F5F80938005E090810580918205873023
:1022F00009F445C1883009F4D1C2863009F037C1EC
:10230000B0908005F12CE9E2EB1508F4F4C02B2D18
:102310002A52330B6901CC0CDD1C870128E63BE512
:1023200040E0B60190E080E00E94F70567E070E0D1
:102330006C197D092AE63DE640E090E080E00E94CD
:10234000F705B2EEDB2EDB0C3CE13D1508F4E3C0F3
:10235000EB2DF0E0ED5FFE4F808187012CE632E847
:1023600040E061E070E0082E000C990B0E94F70538
:1023700081EE8B0D8C3108F0DBC0EB2DF0E0ED5FD2
:10238000FE4F9081870128ED37E840E065E170E07D
:10239000E0E5F0E0DF01A91BB10997FDB395CD01A0
:1023A0000E94F705BCE1BD1508F4DEC0EB2DF0E09E
:1023B000ED5FFE4F8081870122E439E840E06AE268
:1023C00070E0082E000C990B0E94F705D0C03091E8
:1023D0007805882339F080917F058A3018F485E0EC
:1023E0008093820580917D05FF2091F090917E057C
:1023F0009A3070F490917C05282F220F220F920FB3
:102400009093DF089AE0909382059BE09093790582
:1024100033FF57C090917E059F5F90937E0532FFFA
:1024200053C090917F059F5F90937F0590917E05AB
:10243000913238F090917F05913218F098E09093A6
:10244000820515FF07C090917C05992319F09150E2
:1024500090937C0516FF13C090917C05943078F41E
:102460009F5FE82FEE0FEE0FE90FA3E0EA9FF00168
:102470001124E453F64F2081211190937C0514FF21
:1024800015C0873098F4E0917C05EC5F982F990F88
:10249000990FE90FB3E0EB9FF0011124E453F64FDD
:1024A0009081992319F08F5F80937D0517FF14CFDA
:1024B00080917D05882309F40FCF815080937D059D
:1024C0000BCF10927E05ABCF10927F05AFCF13FFDD
:1024D0000CC00E9421040E94DD008BE080937E05E9
:1024E00080937F0587E08093820512FFF5CE87E019
:1024F00080938205F1CE870128E63BE540E070E05D
:1025000060E090E080E00E94F7052AE63DE640E0CA
:1025100067E070E012CF8AE38B1508F029CF8701BE
:102520002CE632E840E061E070E08AE190E01ECF06
:10253000EAE3EB1510F00C94C61C870128ED37E890
:1025400040E065E170E086E390E00E94F705FCE181
:10255000FD1508F02BCF870122E439E840E06AE25C
:1025600070E08AE190E030CF2AE32B15A0F380E001
:1025700090E0892B09F4CFCD0E940000CCCD809152
:102580008005F12C8D3108F041C0C82ED12C662772
:1025900077276C197D09660F771F870128E63BE5D1
:1025A00040E090E080E00E94F705B6016A5F7F4F4F
:1025B000660F771F2AE63DE640E090E080E00E944B
:1025C000F705EDE3F1E0EC19FD09A0800A2C000C01
:1025D000BB0884E390E06C01CA18DB082CE632E803
:1025E00040E061E070E0C6010E94F70528ED37E8A1
:1025F00040E065E170E0C5014B960E94F70522E4DA
:1026000039E840E06AE270E0C601DECEE0917D0587
:10261000F0E0E55EFE4FC080D12CD194C194D1088A
:102620008AEE95E09BA38AA33701512C412CD70158
:10263000A456BF4FBDA3ACA31201912C812CB12C89
:10264000A12CF301EC5AFF4FFFA3EEA3F401EE51CE
:10265000FC4F2AA13BA1E20FF31F8081830181304F
:1026600031F00CA11DA1823021F40EA11FA1080D93
:10267000191D20E73AE940E0B601C5010E94450670
:1026800080917D05880F880F90917C05890F8215B8
:10269000130491F48091E2089091E30860E370E004
:1026A0000E94D41D489740F4870122EC30EB40E0B3
:1026B000B601C5010E94F70533E1A30EB11C8FEFEF
:1026C000281A380A93E0890E911CACE4AA16B104CA
:1026D00009F0BCCFB2E1CB0ED11CECE06E0E711C48
:1026E000F4E04F0E511C2AA13BA1245F3F4F3BA3B6
:1026F0002AA338E14316510409F09ECF80917D054D
:1027000073E0972E8701899D000D111D11242CE582
:1027100032EB40E070E060E08BE490E00E94450620
:1027200080917D05880F880F90917C05890F870126
:10273000899D000D111D112423EB31ED40E062E075
:1027400070E083E790E00E944506E0917D05EE0F82
:10275000EE0F80917C05E80FE99DF0011124E45310
:10276000F64F0081802F90E08C01000F111F080FA1
:10277000191F0E0D1F1D2EE230ED40E061E170E0EB
:1027800084E590E00E944506E0917D05EE0FEE0F96
:1027900080917C05E80FE99DF0011124E453F64F88
:1027A0008081813009F0E3CE87012DED36ED40E0E8
:1027B00060E270E082E590E00E944506E0917D05D0
:1027C000EE0FEE0F80917C05E80FE99DF0011124DA
:1027D000E453F64F8181928124E6C22ED12CB601BA
:1027E0000E94D41D8B01000F111F060F171F0E0D25
:1027F0001F1D23EF37ED40E069E270E081E790E0D4
:102800000E944506E0917D05EE0FEE0F80917C055C
:10281000E80FE99DF0011124E453F64F8181928184
:10282000B6010E94D41D4AE0A42EB12CB5010E942D
:10283000D41D8B01000F111F060F171F0E0D1F1D3A
:1028400023EF37ED40E069E270E086E790E00E9418
:102850004506E0917D05EE0FEE0F80917C05E80FB7
:10286000E99DF0011124E453F64F81819281B60174
:102870000E94D41DB5010E94D41D8C01000F111FB0
:10288000080F191F0E0D1F1D23EF37ED40E069E201
:1028900070E08BE790E00E94450669CE0E2D10E0B7
:1028A0002AE13CE340E069E170E084E290E0F3CFAC
:1028B0001092E5081092E4088091790580938205D2
:1028C000109280054091DF081092E6081092E80807
:1028D0001092E9081092EA081092EB081092EC08A6
:1028E0001092ED08EAE2F9E08FEF8083379699E0E5
:1028F000E83AF907D1F78093A8098093AE0980934D
:10290000B4098093BA098093C0098093C609809363
:10291000FA08809306098093120980931E0903E048
:1029200020E060ED7BE080E00E94FE020E949C01BE
:10293000782E0E94A101682E892E8BEEE82E85E06C
:10294000F82E10E09EE0C92ED12C0EE020E0412FA1
:10295000882DB3010E94FE02F70196010E94A70193
:10296000819321503040D1F70E94A1011F5FAEE05A
:10297000EA0EF11C193049F7A8EFCA2EA5E0DA2EAD
:10298000812CE12C912CFF24F394B6E04B2E17E020
:10299000512E0CE0702E6624639401E010E06F2D40
:1029A000802F0E94C500813F09F4E5C408F0AFC440
:1029B0008A3E09F415C58C3E09F4C7C40F5F1F4F4A
:1029C0000F30110561F7F394BEE0CB0ED11CEAE0A5
:1029D000FE12E3CFE092E00810920D0180E88093B0
:1029E0000C0110920E010E943A04E0E3F9E08FEF2F
:1029F0008083379629E0EE3AF207D1F710927A05F4
:102A0000309181053FA70E941604882309F40CC267
:102A1000109182050E946104C82E8091E208909175
:102A2000E30801969093E3088093E20885EF810F15
:102A3000823008F090C5B090E905B11065C580916D
:102A40000C01803809F063C580917A05882309F468
:102A5000DFC466E0462E66E0562E7AEE672E75E0FD
:102A6000772EE8EF8E2EE5E09E2E13011AA6F2E0F7
:102A7000AF2EDD24DA94DA0CEE24E394F12C1E2D33
:102A80006D2D8E2D0E94C5008A3F19F08D3F09F0F3
:102A9000D0C08FEF810F8CA76D2D0E94C5008AA337
:102AA00091E0910F9EA76D2D892F0E94C5008CA3E8
:102AB0006AA5812F0E94C5008EA36A2D812F0E94D6
:102AC000C50088A7AAA1AF3E41F4F7013F97E80DE2
:102AD000F91DB0EFB083E0EFEAA3FCA1FF3E41F4A3
:102AE000F7013D97E80DF91D20EF208330EF3CA35F
:102AF0008EA18F3E41F4F7013E97E20DF31D90EF5A
:102B00009083A0EFAEA3B8A5BF3E41F4F7013E9776
:102B1000E40DF51D20EF208330EF38A78AA1803F18
:102B2000F9F08A3FE9F08D7F8D3FD1F000E02FEF83
:102B30004D2D612F81E00E94DC06882389F06D2DE8
:102B40008CA50E94550481110BC0C7010F97AAA143
:102B5000880D991DAC3F09F04EC420E6FC0120838E
:102B6000FCA1F03F01F1FA3FF1F08F2F8D7F8D3FF7
:102B7000D1F000E021E04D2D612F81E00E94DC06C4
:102B8000882389F06D2D8EA50E94550481110BC0FC
:102B9000C7010D972CA1880D991DE0E62C3F09F087
:102BA000E1E6DC01EC93FEA1F03F01F1FA3FF1F028
:102BB0008F2F8D7F8D3FD1F00FEF20E04D2D612FB6
:102BC00081E00E94DC06882389F06AA5812F0E949B
:102BD000550481110BC0C7010E972EA1820D931DC4
:102BE000E0E62C3F09F0E1E6DC01EC93F8A5F03FCC
:102BF00001F1FA3FF1F08F2F8D7F8D3FD1F001E091
:102C000020E04D2D612F81E00E94DC06882389F0B1
:102C10006A2D812F0E94550481110BC0C7010E97A8
:102C200028A5840D951DE0E62C3F09F0E1E6DC01C6
:102C3000EC93FFEFEF1AFF0A2FE0E216F10409F020
:102C40001ECFA3943AA53F5F3AA78EE0480E511CD1
:102C50009EE0290E311CAEE08A0E911CBBE0AB1247
:102C600008CF3DEFD32E4AEFA42E10E000E0902EC7
:102C70006B2D802F0E94C500813609F0C0C3F8017A
:102C80003E97E60DF71DA0829CE9980F923488F4D8
:102C90007801EEE0EE1AF108E60CF71C8150D7013E
:102CA0008C936B2D892D0E94C500843611F4F70199
:102CB00010820F5F1F4F00311105C9F6B394FEE07B
:102CC0006F0E711C2BE0B212D0CF10927A0580915A
:102CD000E008811139C09091E8082091EE08422F58
:102CE00042954F70392F32953F7043132DC02F708E
:102CF0009F70291329C010928005E091DF0833E00E
:102D0000E39FF0011124E453F64F91E0908320916A
:102D1000E4083091E50832832183ECECF9E024E10A
:102D20003AE09081913009F48F5F33962E173F0778
:102D3000C1F7883109F0D0C38DE08093820580E12E
:102D4000809379050E94DD006091E808162F1295A6
:102D50001F706F70812F0E94C5008A3F79F481E057
:102D60008093E905612F83EE95E00E94E70360916F
:102D7000E8086F7083EE95E00E94E003E8EAF9E06E
:102D80002CEC39E041E09091E8088081692F629550
:102D90006F70582F52955F70651310C09F70582F39
:102DA0005F7095130BC09091E00891509093E008EC
:102DB0008F608083911102C04093F40836962E17DD
:102DC0003F0709F7C2FE0EC080910C01803809F060
:102DD000A2C381E080930E019091E608911180E0FA
:102DE00080930D0180910E01813009F4A0C38230DF
:102DF00009F4A8C38091E9058823B1F02091E20885
:102E00003091E30823703327232B71F48A3018F4B0
:102E10008F5F8093E9058091E905893029F481E08D
:102E200080930E0110920F014091DF086BE574E969
:102E300082E00E940B039B01482FBFA5EB2EF12CD3
:102E40008091E108E82FFF27E1950CF4F095BF0190
:102E5000870190E080E00E9445062DE830EF40E0D9
:102E600070E060E088E790E00E9445060091DF088E
:102E700010E00F5F1F4FC801880F991F080F191F1F
:102E80000E0D1F1D2FE431EF40E061E170E089E796
:102E900090E00E9445068091E4089091E5086AE080
:102EA00070E00E94D41D8B01000F111F060F171F29
:102EB0000E0D1F1D2FE431EF40E062E370E089E763
:102EC00090E00E9445068091E4089091E50864E650
:102ED00070E00E94D41D8C01000F111F080F191FF4
:102EE0000E0D1F1D2FE431EF40E066E370E089E72F
:102EF00090E00E94450680E591E00E94000C87E585
:102F000091E00E94000C612CC12C9701245C3F4F82
:102F10003FA32EA3C701C09699A788A7D7015E96A5
:102F2000BBA7AAA7F701EE5BFF4FFDA7ECA7809117
:102F3000E108F62DF81B8F2F865080340CF04CC022
:102F4000893F0CF449C0D12CA82E880FBB089701EB
:102F5000255E3F4F3BA32AA3C701CF969DA38CA319
:102F60008D2C880C880C880C9AEF890E082C000C8C
:102F7000990880910C018750990B8816990644F5A1
:102F80006C2D8D2D0E94C500843608F42BC3863A23
:102F900008F018C38701A3E08A9F000D111D1124BA
:102FA0000C5211402BEA3FE441E0B501C4010E94FC
:102FB00045066C2D8D2D0E94C500803F49F40EA161
:102FC0001FA121EB3AEF40E0B501C4010E94F705D3
:102FD000D394EFE0ED1520F6C394F8E06F0E2BE0EC
:102FE000C212A5CF0AE2C02E09E0D02E88EAA82E90
:102FF00089E0B82E47013DE2830E911CC6010E9474
:1030000093062091E108022E000C330B8823F9F07F
:10301000D6018C91682F6F70B8E06B9FB0011124BE
:10302000621B730B6650710982958F70E8E08E9F6A
:10303000C0011124840121EB3AEF40E006970E9481
:10304000F705F7E0CF0ED11CAC14BD04B9F6BEEB0A
:10305000CB2EB3E0DB2E1CE0A12EB12C47012FE0DC
:10306000820E911C860106511A4FC8010E949306D8
:10307000882371F1D8012C918091E2089091E308A6
:1030800064E270E00E94D41DB5010E94D41D8B0142
:10309000000F111F060F171F080D191D622F6F70EB
:1030A000B8E06B9FB00111248091E108681B7109A1
:1030B00087FD73956650710922952F70E8E02E9F69
:1030C000C001112421EB3AEF40E006970E94F7057A
:1030D000F6E0CF0ED11C22EEC21623E0D20611F686
:1030E000EAEFCE2EE8E0DE2EFAE2AF2EF9E0BF2EB8
:1030F000470135E4830E911C370188E4680E711C8A
:10310000D6011C91012F0F7012951F70602F812F17
:103110000E94C500803F11F1C6010E9493068823DA
:10312000E9F0B8E00B9FB00111248091E108681B21
:10313000710987FD739566507109E8E01E9FC00113
:1031400011240697D60116962C918301211101C0F6
:10315000840121EB3AEF40E00E94F705BCE0CB0E82
:10316000D11CAC14BD0461F6E091EE088E2F8F7077
:10317000F8E08F9F600111248091E108C81AD108FE
:1031800087FDD39426E0C21AD108E295EF7038E0AB
:10319000E39FF001112436978091F4088701085EBF
:1031A0001F4F8823A1F08091E2089091E30868E224
:1031B00070E00E94D41D63E0969587956A95E1F7CB
:1031C0008C01000F111F080F191F0E0D1F1D21EB81
:1031D0003AEF40E0B601CF010E94F7058091E80880
:1031E000682F6F7098E0699FB00111249091E108F9
:1031F000691B710997FD73956650710982958F70EF
:10320000A8E08A9FC001112406972091E905870153
:10321000263008F489C2055B1F4F21EB3AEF40E0EE
:103220000E94F7059091E9058FEF890F883020F50E
:103230008091E3058701B3E09B9F000D111D1124D0
:1032400003501109682F6F70E8E06E9FB0011124E0
:103250009091E108691B710997FD7395635171099C
:1032600082958F70F8E08F9FC00111242BE838ED14
:1032700040E043970E94F70580910C0187FD26C02E
:1032800000910D0110E09091E60822E030E09923D2
:1032900011F030E020E0200F311F8901000F111FD5
:1032A000020F131F90910F0130E020E0911102C036
:1032B0002FE030E0020F131F0E0D1F1D26E63DE329
:1032C00040E070E060E090E00E9445068091820559
:1032D0008D3009F03FC2809180058A3208F027C204
:1032E000282F2A52330B6901CC0CDD1C870128E6FC
:1032F0003BE540E0B60190E080E00E94F70567E022
:1033000070E06C197D092AE63DE640E01FC2833F6C
:1033100009F450C008F441C08B3F09F04FCB959C95
:10332000C00111249C01265D364F5901602FC9014F
:103330000E94E7036F2DC5010E94E003F8013E974C
:10334000EC0DFD1D1082939439CB879CC001112494
:10335000FC01E650F74F5F01602FCF010E94E703A9
:103360006F2DC5010E94E003F8013E97EC0DFD1D95
:103370001082839423CB602F8EEE98E00E94E703A7
:103380006F2D8EEE98E00E94E0036092F408F80141
:103390003E97EC0DFD1D108211CB602F8EEE98E054
:1033A0000E94E7036F2D8EEE98E00E94E0031092DA
:1033B000F408EDCFE49CC0011124DC01A855B64F00
:1033C0005D01602FCD010E94E7036F2DC5010E94B2
:1033D000E003F8013E97EC0DFD1D1082E394EECA68
:1033E000602F88EE98E00E94E7036F2D88EE98E04A
:1033F0000E94E003CCCFE1E6DC01EC93B1CB803658
:1034000009F042CCF8013E97E60DF71DD0823CCC86
:10341000C5FE1FC000E02FEF40E060E080E00E94AA
:10342000DC068823B1F00E94570B6091E808629592
:103430006F7061506F7088EE98E00E94E7030E9401
:1034400071040E949C060E94D60881E080937A0550
:103450003ECCC6FC1EC0C7FE2DC00FEF20E040E0F2
:1034600060E080E00E94DC06882321F10E94570B77
:103470006091E808615F6F7088EE98E00E94E00359
:103480000E9471040E949C060E94D6080E943A0481
:10349000DCCF00E021E040E060E080E00E94DC065C
:1034A0008823C9F20E94570B6091E80862956F70FB
:1034B0006F5FC0CFC4FE0BCC01E020E040E060E0D5
:1034C00080E00E94DC06882309F401CC0E94570B9F
:1034D0006091E8086F5FCFCFE091DF08E73150F4EB
:1034E000EF5F83E0E89FF0011124E453F64F808101
:1034F000813029F48DE08093820587E021CC8DE036
:10350000809382058EE01CCC9AE0B9125BCC8C2DA6
:103510000E946C0A57CC803609F064CC80910F0170
:10352000882309F45FCC82E080930E015BCC80910C
:103530000C01825080930C01803609F05BCC109214
:103540000E0158CC80910C018E5F80930C01803865
:1035500009F050CCF4CF809180058F5F8093800577
:103560008B3209F061CC8091DF0810928005909138
:1035700079059E3021F51D30F1F49AE09093820593
:103580008F5FA3E08A9FF0011124E453F64F92E08D
:1035900090838093DF0880917C058F5F80937C050A
:1035A000853009F041CC10927C0580917D058F5FBC
:1035B00080937D0539CC8BE08093820535CC909348
:1035C000820532CC0CA11DA18E3E21F08B3E51F420
:1035D0000CA51DA521EB3AEF40E0B501C4010E9406
:1035E000F705E7CC0AA11BA18C3FA1F38D3FA9F4FD
:1035F0000091E2081091E308F3E016950795FA951B
:10360000E1F703701127C801880F991F080F191FD0
:10361000EAA5FBA50E0F1F1FDDCF8E3FA9F4009179
:10362000E2081091E30873E0169507957A95E1F7A3
:1036300003701127C801880F991F080F191F28A5AB
:1036400039A5020F131FC6CF8A3F79F577247394EB
:103650006C2D8D2D870D0E94C5008A3F21F4739437
:103660003EE07312F5CF4FEF470D63EA74E982E055
:103670000E940B039B01482F0091E2081091E30880
:1036800093E0169507959A95E1F703701127C80105
:10369000880F991F080F191F0E0D1F1DB501C401BA
:1036A0000E944506DA94D70C84CC8F3E09F081CC79
:1036B000772473946C2D8D2D870D0E94C5008F3E4D
:1036C00021F473948EE07812F5CF272C312C512CF5
:1036D000412C19A28E010F5D1F4FC201B1012AE0DA
:1036E00030E040E050E00E94A31D605DD8016E9381
:1036F0008D01BAE02B1631044104510480F4011508
:10370000110519F0C8010E94000C87E591E00E94A4
:10371000000C4FEF470D6DEC74E982E0A9CF212C2E
:10372000312C21012394D9CF065D1F4F76CD87011F
:1037300028E63BE540E070E060E090E080E00E9439
:10374000F7052AE63DE640E067E070E090E080E0C3
:103750000C94E4118E3011F00C94B7126091800536
:103760006A3210F00C94B712C62ED12C6627772738
:103770006C197D09660F771F870128E63BE540E05D
:1037800090E080E00E94F705B6016A5F7F4F660F08
:10379000771FB9CD81E18093820510928005109248
:1037A000E3081092E2080E9416048823F1F01091B9
:1037B00082058091E2089091E30801969093E308D6
:1037C0008093E2080E946104082F88E00E940B04A5
:1037D000113109F453C0123109F464C0809180059D
:1037E0008E3F18F48F5F80938005E0908105809173
:1037F0008205813109F46BC0823111F00C94B7124B
:10380000809180058D3108F0BEC0F12CC82ED12CDE
:10381000662777276C197D09660F771F870128E6D1
:103820003BE540E090E080E00E94F705B6016A5F6A
:103830007F4F660F771F2AE63DE640E090E080E08C
:103840000E94F705EDE3F1E0EC19FD09C0800C2CB6
:10385000000CDD082CE93EE840E06BE070E084E31A
:1038600090E08C199D090E94F70526EF33E940E0AE
:1038700060E270E0C60109970C94E4118091E208BF
:103880009091E308499708F4A9CF03FFA7CF0E94BE
:103890000D0C82E1809382058BE080937E0510926F
:1038A00080059CCF882309F499CF80917E058A30CA
:1038B00008F094CF80917D05880F880F90917C054A
:1038C000890F8093DF088AE08093820587CFF12CEF
:1038D000870128E63BE540E070E060E090E080E0B2
:1038E0000E94F7052AE63DE640E067E070E090E0E0
:1038F00080E00E94F705D090800582EE8D0D8D311D
:1039000038F5ED2DF0E0ED5FFE4F80812CE93EE8CB
:1039100040E06BE070E0082E000C990B0E94F70568
:1039200081EE8D0D8C3100F5ED2DF0E0ED5FFE4F59
:103930008081870126EF33E940E060E270E0ACE28D
:10394000B0E0A81BB10987FDB395CD010C94E4113B
:103950003AE33D1528F787012CE93EE840E06BE0AB
:1039600070E08AE190E0DACFBAE3BD1510F00C9474
:10397000B712870126EF33E940E060E270E082E1B0
:1039800090E00C94E41187E00C942D11ECE1ED151E
:1039900010F40C94B7120C94D6118F929F92AF92A0
:1039A000BF92CF92DF92EF92FF92CF93DF93EC0121
:1039B000688179818A819B816115710581059105F5
:1039C00021F464E279ED8BE597E02DE133EF41E0FE
:1039D00050E00E94711D49015A019B01AC01A7EA08
:1039E000B1E40E94901D6B017C01ACEEB4EFA50127
:1039F00094010E949E1DC60ED71EE81EF91EF7FEFA
:103A000006C081E0C81AD108E10880E8F80AC88237
:103A1000D982EA82FB82C701B6019F77DF91CF91FD
:103A2000FF90EF90DF90CF90BF90AF909F908F90DE
:103A300008958F929F92AF92BF92CF92DF92EF92B2
:103A4000FF9260911001709111018091120190918B
:103A50001301611571058105910521F464E279ED89
:103A60008BE597E02DE133EF41E050E00E94711DBE
:103A700049015A019B01AC01A7EAB1E40E94901DE3
:103A80006B017C01ACEEB4EFA50194010E949E1D78
:103A9000C60ED71EE81EF91EF7FE06C081E0C81A42
:103AA000D108E10880E8F80AC0921001D092110113
:103AB000E0921201F0921301C701B6019F77FF90C7
:103AC000EF90DF90CF90BF90AF909F908F90089530
:103AD0006093100170931101809312019093130170
:103AE0000895052E97FB1EF400940E94881D57FD33
:103AF00007D00E94A31D07FC03D04EF40C94881D30
:103B000050954095309521953F4F4F4F5F4F089509
:103B100090958095709561957F4F8F4F9F4F089539
:103B20000E94C51DA59F900DB49F900DA49F800D70
:103B3000911D11240895B7FF0C94901D0E94901DB3
:103B4000821B930B0895A1E21A2EAA1BBB1BFD0139
:103B50000DC0AA1FBB1FEE1FFF1FA217B307E4076C
:103B6000F50720F0A21BB30BE40BF50B661F771FC4
:103B7000881F991F1A9469F76095709580959095A4
:103B80009B01AC01BD01CF010895A29FB001B39F7D
:103B9000C001A39F700D811D1124911DB29F700D56
:103BA000811D1124911D0895AA1BBB1B51E107C063
:103BB000AA1FBB1FA617B70710F0A61BB70B881FBD
:103BC000991F5A95A9F780959095BC01CD0108954C
:103BD000EE0FFF1F0590F491E02D0994F894FFCFAC
:103BE000FFFFFFFF00E10000000000008000000177
:103BF0000100000000C1808100000000000E1F2BAA
:103C00002B83909BA6B0BAC3CCD4DCE3EAF0F6FBDE
:103C10000004080C0F1214161718181919190000AF
:103C200000007202450393028802D9029702B5028E
:0A3C30002D2D2D2D2D2D000D0A0065
:00000001FF
